:020000040800F2
:10000000100A002005010008CF250008531D000834
:10001000CD2500083D0900088729000800000000E0
:10002000000000000000000000000000312800086F
:1000300061090008000000002F280008332800088C
:100040001F0100081F0100081F0100081F01000810
:100050001F0100081F0100081F0100081F01000800
:100060001F0100081F010008630900081F010008A4
:100070001F0100081F0100081F0100081F010008E0
:100080001F0100081F0100081F0100081F010008D0
:100090001F0100081F0100081F0100081F010008C0
:1000A0001F010008992800081F0100081F0100080F
:1000B000A52800081F0100081F0100081F010008F3
:1000C0001F0100081F0100081F0100081F01000890
:1000D0001F0100081F0100081F0100081F01000880
:1000E0001F0100081F0100081F010008DFF810D0E1
:1000F00000F058FB00480047DD360008AFF30080F1
:10010000100A00200648804706480047FEE7FEE741
:10011000FEE7FEE7FEE7FEE7FEE7FEE7FEE7FEE7B7
:1001200095280008ED000008202A04DB203A21FA77
:1001300002F00021704721FA02F3D040C2F1200200
:10014000914008431946704740EA01039B0703D0DA
:1001500009E008C9121F08C0042AFAD203E011F806
:10016000013B00F8013B521EF9D27047D2B201E0C8
:1001700000F8012B491EFBD270470022F6E710B5AC
:1001800013460A4604461946FFF7F0FF204610BD05
:100190002DE9FE4F804681EA0300C00F0C46009017
:1001A00021F0004123F00045B8EB0200A94105D23F
:1001B0004046214690461C460B46024623F000402E
:1001C000104347D0270DC7F30A00C3F30A5102902A
:1001D000401A019040286BDAC3F3130040F4801BEF
:1001E0000098924620B10023D2EB030A63EB0B0B7D
:1001F00001985946C0F14002504600F096F9064673
:100200000D4650465946019A00F09EF910EB080041
:100210006141002487EA115284EAE7731A4340D00F
:10022000009A62B3019A012A4FEA075215DC001BBB
:1002300061EB02014FF0004202EA0752CDE90042B1
:10024000001C41F5801132462B4600F0D5F903B071
:10025000BDE8F08F40462146F9E7001B61EB020143
:10026000001C41F5801300185B412018A2F500170F
:1002700047EB030140EAD570B6196D4111E06D08F6
:100280004FEA360645EAC0754FEA0752001B61EB9C
:100290000201001C41F5801149084FEA30000019A5
:1002A000514132462B4603B0BDE8F04F00F095B9FE
:1002B0000098012240000023D0EB020263EBE073C0
:1002C000009821464FEAE074B8EB000061EB0401AE
:1002D000E9E783F000435BE781F0004158E72DE94F
:1002E000FE4F81EA030404F0004421F00041009431
:1002F0004FF0000B23F0004350EA01045ED052EAB5
:1003000003045BD0C3F30A54C1F30A552C44A4F28E
:10031000F3340194A0FB0254C1F3130141F48011A2
:10032000C3F3130343F4801301FB024400FB034EA9
:10033000840A970A44EA815447EA8357A4FB076872
:1003400002958D0A05FB07854FEA932C04FB0C549C
:100350002705029D4FEA065847EA1637B5EB080510
:100360006EEB070C870E920E47EA811742EA831262
:10037000A7FB0201B6EB0B0164EB00042B0D43EA73
:100380000C335E1844EB1C50DA465146E7FB020181
:10039000C5F313044FEA0B3343EA14534FEA043214
:1003A000019C43EA0603A4F10C040294009CCDE9ED
:1003B00000B400F021F903B0BDE8F08F0020014641
:1003C000F9E70EB540F2334102910021CDE9001169
:1003D0000A460B4600F010F903B000BD00F00042E1
:1003E00030F000400AD0C10D01F56071C0F3160075
:1003F00042EA0151C20840071143704700200146FC
:100400007047000030B5041E71F1000404DB4FF0AA
:100410000044404264EB0101141E73F1000405DB4B
:100420001C464FF00043524263EB04038B4208BF6B
:10043000824230BD30B5041E71F1000404DB4FF080
:100440000044404264EB0101141E73F1000405DB1B
:100450001C464FF00043524263EB0403994208BF2D
:10046000904230BD01F0004330B421F0004150EA29
:10047000010206D00A0DA2F56072C1F31301002A31
:1004800002DC30BC00207047440F44EAC104C100C4
:10049000E01830BC00EBC25000F068B830B50B4635
:1004A000014600202022012409E021FA02F59D42A4
:1004B00005D303FA02F5491B04FA02F52844151E78
:1004C000A2F10102F1DC30BD2DE9F05F054600200C
:1004D00092469B4688460646814640241BE02846B5
:1004E000414647462246FFF71FFE53465A46C01A6A
:1004F000914110D311461846224600F016F82D1AE5
:1005000067EB01084F4622460120002100F00DF85C
:1005100017EB00094E41201EA4F10104DFDC484620
:1005200031462A464346BDE8F09F202A04DB203AA4
:1005300000FA02F1002070479140C2F1200320FA36
:1005400003F3194390407047202A06DBCB17203A6B
:1005500041FA02F043EAE07306E041FA02F3D040C8
:10056000C2F1200291400843194670470029A8BFF4
:100570007047401C490008BF20F00100704710B4CC
:10058000B0FA80FC00FA0CF050EA010404BF10BC81
:10059000704749B1CCF1200421FA04F411FA0CF1AE
:1005A00018BF012121430843A3EB0C01CB1D4FEAE7
:1005B00000614FEA102042BF002010BC704700EBE2
:1005C000C35010440029A4BF10BC7047401C490010
:1005D00008BF20F0010010BC704710B5141E73F165
:1005E000000408DA401C41F1000192185B411A43F3
:1005F00001D120F0010010BD2DE9F04D92469B463F
:1006000011B1B1FA81F202E0B0FA80F220329046E4
:10061000FFF78BFF04460F4640EA0A0041EA0B0150
:1006200053465A46084313D0114653EA010019D0E5
:10063000C8F140025046FFF777FD05460E4650468A
:1006400059464246FFF771FF084305D0012004E0F8
:1006500020463946BDE8F08D0020054346EAE076A5
:100660002C4337430A986305E40AA0EB08000022F4
:10067000FD0A44EA47540A3002D500200146E9E762
:10068000010510196941DDE9084500196941BDE816
:10069000F04DA2E72DE9F04D81EA030404F0004B90
:1006A00021F0004514464FF0000A23F0004150EAC3
:1006B000050220D054EA01021DD0C5F30A570246B4
:1006C000C5F31303C1F31300C1F30A5640F48015B8
:1006D00043F48013A7EB0608101BD64608F2FD383A
:1006E00073EB050002D308F1010801E092185B41A9
:1006F000B8F1000F03DA00200146BDE8F08D0020BC
:100700004FF48011064684460EE0171B73EB050775
:1007100005D3121B63EB050306434CEA010C4908A1
:100720004FEA300092185B4150EA0107EDD152EADE
:10073000030012D082EA040083EA0501084305D0D1
:10074000101BAB4106D20122002306E000224FF02D
:10075000004302E06FF0010253101AEB06004CEB6D
:10076000085110EB0A0041EB0B01BDE8F04DFFF71B
:1007700034BFC1F30A52C1F3130140F2FF3341F415
:1007800080119A4202DA00200146704740F233435A
:100790009A42A2F2334202DC5242FFF7C5BCFFF795
:1007A000C4BE0000064C074D06E0E06840F00103BF
:1007B00094E8070098471034AC42F6D3FFF79AFC50
:1007C000D8430008F843000870B58C1810F8015B96
:1007D00015F0070301D110F8013B2A1106D110F8DA
:1007E000012B03E010F8016B01F8016B5B1EF9D1DE
:1007F0002B0705D40023521E0DD401F8013BFAE764
:1008000010F8013BCB1A921C03E013F8015B01F8CE
:10081000015B521EF9D5A142D8D3002070BD000063
:100820000FB41FB52A2206A91A48FFF78DFCBDF8A0
:100830004200184C60851198E062129820630922EA
:1008400013A904F13400FFF77FFC9DF8550084F8EC
:100850003D009DF8560084F83E00169820641798D5
:1008600060641898A0641998E0641A9820650121C2
:10087000FF2203A88DE807000B460022A121204695
:1008800000F0A0FA002800D0012004B010BC5DF8F0
:1008900014FB0000B80500200EB540F6FF7300926F
:1008A000CDE9011302460123A121044800F08AFA90
:1008B000142000F05BF800200EBD0000B8050020F9
:1008C0002DE9FE4F8046FF20164608292ED9CD0877
:1008D00001F00707002481464FF0080A12E000BF2C
:1008E00006EBC402CDE9002A08EBC40082B2CDF8C1
:1008F00008900123A021104800F08CFB052000F097
:1009000035F8641CAC42EBDB6FB106EBC5018DE83A
:10091000820208EBC5020123A021074800F07AFB00
:10092000052000F023F80020BDE8FE8FCDE900216E
:10093000012302904246EFE7B8050020FEE70000E1
:1009400001221102014800F06EB9000000080140C8
:1009500000224FF48071014800F065B900080140A1
:100960007047102000F05EB872B6FEE770B504461E
:1009700000F05EF90546601C02D00448007804448B
:1009800000F056F9401BA042FAD370BD4000002091
:100990002DE9F0411B4CDFF87080207820B9D8F8A1
:1009A0000000A060012020701021184800F036F9E6
:1009B000012823D003F0C6F806001DD0A068FFF779
:1009C0000DFD4FF03332124BFFF789FC07460D4601
:1009D0003046FFF7F6FC0F4A0F4BFFF780FC0F4A3B
:1009E0000F4BFFF77CFC3A462B46FFF7D1FBFFF796
:1009F00039FDC8F80000A060BDE8F081BDE8F04115
:100A000003F0A0B81004002014000020000C0140E6
:100A10003333E33F9CC420B07268913F9A9999990F
:100A20009999D93F044910B50A68024202D008607A
:100A3000FFF7AEFF10BD0000140401402DE9F84F90
:100A4000DFF8B8910024A9F1040B23460F2709F120
:100A5000040AABF1040EC9E00125A5402A40AA42D0
:100A60007DD1674ED1F804C0ACEB0608B44532D056
:100A700014DCBCF1030F3AD009DCBCF1000F2AD022
:100A8000BCF1010F1CD0BCF1020F31D11DE0BCF153
:100A9000110F17D0BCF1120F2AD119E0B8F5881F39
:100AA00019D006DCB8F5803F15D0B8F5801F1FD1EE
:100AB00011E0B8F5001F0ED0B8F5041F18D10AE0F8
:100AC000CB6815E0CB681B1D12E0CB6808330FE044
:100AD000CB680C330CE08B682BB1012B4FF0080373
:100AE00003D0456104E0042302E0056100E0002337
:100AF000FF2A01D8064601E000F104064FEA84050A
:100B000001D9A5F12005D6F8008007FA05FC28EAEE
:100B10000C0803FA05F548EA0508C6F800804D6898
:100B2000ED0062D5374DAE6946F00106AE61AD69A4
:100B300024F0030605F001050095334D06EB050C86
:100B4000DCF80850A607360F07FA06F825EA08056C
:100B5000DFF8B880404503D14FF0000817E044E0CB
:100B6000DFF8AC80404502D14FF001080FE0DFF81C
:100B7000A480404502D14FF0020808E0DFF89880D9
:100B8000404502D14FF0030801E04FF0040808FA95
:100B900006F848EA0508CCF808804D68D9F80060E6
:100BA000ED024D4601D5164300E096432E604D6898
:100BB000DAF80060AD02554601D5164300E09643D1
:100BC0002E604D68DBF80060AD035D4601D516432D
:100BD00000E096432E604D68DEF80060ED03754638
:100BE00001D5164300E096432E60641C0D682A462A
:100BF000E5407FF431AFBDE8F88F00000804014004
:100C000000001110001002400000014000080140E7
:100C1000000C0140001001400014014080680840B1
:100C200000D0012070470AB1016170470904FBE759
:100C300001488068704700004000002070B5040043
:100C400025D094F83D00002520B984F83C5020467A
:100C500000F078FA242084F83D002068016821F033
:100C6000010101602068016841F4004101602068D1
:100C7000016821F40041016000F0DEFB4D4A61682B
:100C8000914201D84C4900E04C49884201D20120F0
:100C900070BD4B492368B0FBF1F15E6826F03F065A
:100CA0000E435E606368934206D94FF496735943CE
:100CB0004FF47A73B1FBF3F12368491C1E6A26F0E6
:100CC0003F06314319626168914210D84900401EC5
:100CD000B0FBF1F2521CC2F30B02042A01D2042031
:100CE00022E0B0FBF1F0401CC0F30B001CE0A26856
:100CF000F2B301EBC10303EB0116431EB3FBF6F3A2
:100D00005B1C43F480431B0549D092B301EBC10245
:100D100002EB0111401EB0FBF1F0401CC0F30B00D0
:100D200040F4804040F400402168CA694CF6FF73EB
:100D30009A431043C861D4E9071001432068026850
:100D400022F0C00211430160D4E90301014320688D
:100D5000826848F2FF339A4311438160D4E9050168
:100D600008432168CA6822F0FF021043C86001E00E
:100D70000EE016E02068016841F001010160256481
:100D8000202084F83D00256384F83E50002070BD8B
:100D900001EB4106431EB3FBF6F35B1CB3E70120F6
:100DA000C2E701EB4101401EB0FBF1F0401CC0F373
:100DB0000B00B7E7A086010080841E0000093D00FB
:100DC00040420F002DE9FF4F83B00025DDE9107987
:100DD0009A4693460446DDF848800095FFF728FFC1
:100DE000064694F83D0020287CD11923012285492C
:100DF0002046009601F0C4F80028F5D194F83C0094
:100E000001286FD0012084F83C0020680168C907E0
:100E100003D1016841F0010101602068016821F4FB
:100E200000610160222084F83D00402084F83E00EB
:100E300025646762A4F82A90608D20857248E0627C
:100E4000CDE9008653465A462046049900F09AFFA1
:100E500000287DD1208DDFF8B491202768B10128CA
:100E600014D00228206801681ED041F4806101601E
:100E70002068416980690090B6E020684169816915
:100E80000091016841F400710160ADE020680168E3
:100E900021F48061016072B6206841698169009126
:100EA000016841F400710AE041F40061016072B62A
:100EB0002068416981690091016821F480610160C5
:100EC00062B691E0032868D801280CD00228434676
:100ED0004FF000024946204600960FD001F050F82E
:100EE000B0BB10E08BE032464146204601F0EEF800
:100EF00070BB20680069616A08706CE001F040F81E
:100F000030BB72B634E02068016821F48061016072
:100F100072B620680069616A0870606A401C60628D
:100F2000208D401E2085608D401E6085384846F229
:100F3000A8110068B0FBF1F0C0EBC00000EB80002E
:100F40000090401E009008D020684069C04300E037
:100F500029E040070CD50098F3E744F8305F677349
:100F6000A573206940F02000206162B625731AE065
:100F70002068016841F40071016020680069616ABD
:100F80000870606A401C6062218D491E2185618D58
:100F9000491E618562B621681BE032464146204603
:100FA00001F094F818B1012007B0BDE8F08F206877
:100FB0000069616A0870606A401C6062218D491E88
:100FC0002185618D491E618521684A69D243520796
:100FD0000AD409690170606A401C6062208D401E5D
:100FE0002085608D401E6085208D00287FF46AAFCB
:100FF00084F83D7084F83E5084F83C50D4E70220D9
:10100000D2E70000020010000000FFFF0400010012
:101010004C0000202DE9FF4F83B09A46DDE911977F
:1010200093460446DDF84080FFF702FE054694F83B
:101030003D0020287FD119230122404920460095F8
:1010400000F09EFF002876D194F83C00012872D071
:10105000012084F83C0020680168C90703D10168B9
:1010600041F0010101602068016821F40061016024
:10107000212084F83D00402084F83E0000262664AC
:10108000C4F82480A4F82A90608D20852C48E06262
:10109000CDE9007553465A462046049900F0F0FE0B
:1010A00070B930E02A463946204601F047F858B179
:1010B000206C042804D12068016841F400710160AB
:1010C000012007B0BDE8F08F606A216800780861F0
:1010D000606A401C6062218D491E89B22185628D43
:1010E000521E628522685369DB435B070BD469B1EA
:1010F00000781061606A401C6062208D401E20856F
:10110000608D401E6085208D0028CBD12A4639464F
:10111000204600F009FF0028CAD154F83D0B0168B1
:1011200041F400710160202004F81E09E67766771B
:101130000020C6E7FFE70220C3E70000020010001E
:101140000000FFFF30B585B00021009101910291B0
:1011500003911E4D03681E4C122103221D48AB4211
:1011600016D1A36943F00803A361A369039203F0B6
:1011700008030493C023CDE900316946FFF75EFC04
:10118000E06940F40010E061E06900F4001019E04B
:10119000114DAB4217D1A36943F00803A361A369C2
:1011A000039203F0080304934FF44063CDE9003148
:1011B0006946FFF743FCE06940F48000E061E069C4
:1011C00000F48000049005B030BD000000540040E1
:1011D00000100240000C01400058004002488168A5
:1011E000027811448160704740000020074810B524
:1011F000016841F010010160032000F075F8002043
:1012000000F006F800F024F8002010BD0020024095
:1012100070B50D4D04464FF47A712878B1FBF0F0AB
:101220000A490968B1FBF0F000F0CCFA48B9102C7B
:1012300007D200222146501E00F036F800206C60D4
:1012400070BD012070BD0000400000204C00002057
:101250000C4808B5816941F001018161816901F0A3
:1012600001010091C16941F08051C161C06900F084
:10127000805000900448416821F0E06141F0007125
:10128000416008BD0010024000000140002809DB59
:1012900000F01F02012191404009800000F1E02090
:1012A000C0F8001170470000F0B40E4B1B680C46EC
:1012B000C3F30223C3F10705042D00D90425191D2A
:1012C000072901D2002300E0DB1E012606FA05F102
:1012D000491E214099409E40761E16403143F0BC85
:1012E00001F094BB0CED00E0064900F0070208682D
:1012F0004FF6FF03184040EA0220034A10430860FB
:10130000704700000CED00E00000FA052DE9F04701
:101310000F46050061D0434E306800F00700B84228
:1013200009D2306820F0070038433060306800F0A0
:101330000700B84251D128683B4C810712D54007BD
:1013400003D5606840F4E06060602878000703D54A
:10135000606840F4605060606068A96820F0F00048
:10136000084360602878C00728D06868012810D03A
:101370002168022810D0890700292EDA616821F03F
:10138000030101436160FFF753FC804641F2883955
:101390000DE021688903EFE78901EDE7FFF748FCDD
:1013A000A0EB0801494502D90320BDE8F087606839
:1013B000696800F00C00B0EB810FEFD1306800F0ED
:1013C0000700B8420BD9306820F00700384330607E
:1013D000306800F00700B84201D00120E5E7287826
:1013E000400705D56068E96820F4E0600843606064
:1013F0002878000706D56068296920F4605040EA23
:10140000C100606000F028F86168084AC1F3031168
:10141000515CC8400649086006480068FFF7F8FEBE
:101420000020C2E70020024000100240A63B000856
:101430004C00002044000020044805490068496829
:10144000044AC1F30221515CC84070474C0000209F
:1014500000100240B63B00080E4A51680E4801F0E9
:101460000C03042B11D0082B0FD10C48C1F383437C
:10147000C903C05C0AD55168084AC1F34041921EB5
:10148000515C054A5043B0FBF1F0704704494843B2
:10149000704700000010024000127A00963B0008DE
:1014A00000093D002DE9F84F040070D02078C04DB0
:1014B000C00749D06868C0F38100012807D0686878
:1014C000C0F38100022809D16868C00306D52868E6
:1014D000800339D560680028E7D035E06068B0F552
:1014E000803F0BD010B1B0F5A02F11D0286820F4A8
:1014F00080302860286820F4802002E0286840F4CA
:1015000080302860606890B1FFF792FB06460AE0E1
:10151000286840F480202860F0E700BFFFF788FBD0
:10152000801B642873D828688003F7D50CE0FFF788
:101530007FFB064605E000BFFFF77AFB801B6428AF
:10154000F0D828688003F7D420789A4E80074FF0AF
:1015500001094FF0000839D5686810F00C0F07D06A
:101560006868C0F38100022809D16868C00306D406
:101570002868800714D52069012808D110E0206967
:10158000B0B1C6F80090FFF753FB074605E00AE14B
:10159000FFF74EFBC01B0228C4D828688007F7D588
:1015A0002868616920F0F80040EAC10028600DE079
:1015B000C6F80080FFF73CFB074604E0FFF738FB66
:1015C000C01B022823D828688007F7D4207800079A
:1015D0002CD57948A169D9B1C0F80090FFF728FB54
:1015E000074604E0FFF724FBC01B02280FD8686AF7
:1015F0008007F7D571484FF4FA510068B0FBF1F05D
:10160000009000BF0098411E0091FAD20EE080E0E9
:10161000C0F80080FFF70CFB074604E0FFF708FB6B
:10162000C01B022875D8686A8007F7D42078400765
:1016300060D5E8690027C00008D4E86940F0805010
:10164000E861E869012700F0805000905C4801687B
:10165000C90513D40168834641F480710160FFF726
:10166000E7FA824606E000BFFFF7E2FAA0EB0A00C5
:1016700064284ED8DBF80000C005F5D5E0680128E5
:101680000AD008B1052813D0286A20F0010028628A
:10169000286A20F0040002E0286A40F00100286275
:1016A000E06841F2883B98B1FFF7C2FA82460BE04E
:1016B000286A40F004002862EEE700BFFFF7B8FA9E
:1016C000A0EB0A0159455AD8286A8007F6D50CE0E4
:1016D000FFF7AEFA824605E0FFF7AAFAA0EB0A018F
:1016E00059454CD8286A8007F6D41FB1E86920F024
:1016F0008050E861E06988B36968C1F3810102291B
:1017000044D00228C6F8608004D0FFF791FA04465E
:1017100038E034E0FFF78CFA074604E0FFF788FA78
:10172000C01B02282BD828688001F7D4206AB0F5A6
:10173000803F05D16868A16820F4003008436860E4
:10174000D4E908010843696821F47411084368600A
:10175000C6F86090FFF76CFA044606E025E000BF8B
:10176000FFF766FA001B022809D828688001F7D520
:101770001BE000BFFFF75CFA001B022802D9032020
:10178000BDE8F88F28688001F4D40EE00128F7D076
:101790006868226A00F48031914204D1616A00F4E1
:1017A0007010884201D00120EAE70020E8E700003D
:1017B0000010024000004242800442424C000020DF
:1017C0000070004010B5401EB0F1807F01D30120B1
:1017D00010BD4FF0E02460610F21601701F016F991
:1017E0000020A06107202061002010BD70477047D5
:1017F00070B590F83C20012A26D0012480F83C40A6
:10180000022280F83D2003685A689D6822F0700625
:101810000A6832435A600D4B02689A4208D0B2F10E
:10182000804F05D00A4B9A4202D00A4B9A4204D10B
:10183000496825F080031943916080F83D400021FC
:1018400080F83C10084670BD022070BD002C01409D
:10185000000400400008004010B5040003D094F8D4
:101860003D0010B107E0012010BD002084F83C00CD
:10187000204600F01FF8022084F83D00211D20685A
:1018800001F016F8012084F8460084F83E0084F840
:101890003F0084F8400084F8410084F8420084F856
:1018A000430084F8440084F8450084F83D0000209B
:1018B00010BD000008B5154A0168154891420ED1C7
:1018C000816941F4006181618069002200F4006057
:1018D000009011461920FFF7E7FC192010E0B1F144
:1018E000804F11D1C16941F00101C161C06900227D
:1018F00000F00100009011461C20FFF7D5FC1C20D1
:10190000BDE80840FFF7C2BC08BD0000002C014044
:101910000010024090F83D10012901D001207047CD
:10192000022180F83D100168CA6842F00102CA60D5
:1019300000680B49884208D0B0F1804F05D00949B2
:10194000884202D00849884204D1816801F0070129
:10195000062903D0016841F00101016000207047B1
:10196000002C0140000400400008004070B504460F
:1019700090F83C000025012817D0012684F83C602F
:10198000022084F83D002068826822F0770222F469
:101990007F4282600868502838D00DDC20284FD064
:1019A00005DC90B3102811D14AE0022070BD302828
:1019B00046D040280AD13BE060282FD070280DD0B7
:1019C000B0F5805F03D0B0F5005F12D0012584F838
:1019D0003D60002084F83C00284670BDCB68D1E90A
:1019E0000121206800F09AFF2068816841F07701AA
:1019F00009E0CB68D1E90121206800F08FFF206861
:101A0000816841F480418160E1E719E0CA68496872
:101A1000206800F095FF5021206806E0CA684968F8
:101A2000206800F09EFF6021206800F081FFCEE773
:101A3000CA684968206800F083FF40212068F4E705
:101A4000226801461046F0E7704770B5044600680A
:101A500001694FF00005C943890715D4C168C9431E
:101A6000890711D4E91E016101202077206880696F
:101A70008007204602D0FFF7E7FF04E000F098F867
:101A8000204600F096F8257720680169C943490788
:101A900017D4C168C943490713D46FF00401016129
:101AA000022020772068806910F4407F204602D011
:101AB000FFF7CAFF04E000F07BF8204600F079F859
:101AC000257720680169C943090716D4C168C9434D
:101AD000090712D46FF00801016104202077206803
:101AE000C0698007204602D0FFF7AEFF04E000F097
:101AF0005FF8204600F05DF8257720680169C9434A
:101B0000C90617D4C168C943C90613D46FF01001C0
:101B10000161082020772068C06910F4407F2046CA
:101B200002D0FFF791FF04E000F042F8204600F0F9
:101B300040F8257720680169C943C90708D1C16801
:101B4000C943C90704D1891E0161204600F032F85B
:101B500020680169C943090609D4C168C943090657
:101B600005D46FF0800101612046FFF73FFE206839
:101B70000169C943490609D4C168C943490605D466
:101B80006FF040010161204600F0E2F82068016931
:101B9000C94389060BD4C168C943890607D46FF0CD
:101BA000200101612046BDE87040FFF720BE70BDF6
:101BB000704770472DE9F84F05464D48854228D1BA
:101BC0004E494C4A4C4BD1E90001FEF788FB4C4C86
:101BD000D4E90023FEF7DCFAC4E9000101F06EFC51
:101BE00014214848FEF7C9FA14214748FEF7C5FA00
:101BF000464C47A1A078009063782278414800F0D5
:101C0000F1FE607900902379E27846A13E4800F029
:101C1000E9FE4848854268D1474F4FF48056314627
:101C20003846FEF7FBFF454C4FF400584FF480490F
:101C30004FF4004A012578B141463846FEF7EEFFE1
:101C400060B149463846FEF7E9FF48B1514638468B
:101C5000FEF7E4FF30B106E0257004E0657002E0B5
:101C6000A57000E0E57031463846FEF7D7FF002644
:101C7000012802D12078012806D041463846FEF7D7
:101C8000CDFF012804D006E02D480560267021E034
:101C90006078012806D049463846FEF7BFFF012884
:101CA00004D006E027480560667013E0A07801289C
:101CB00006D051463846FEF7B1FF012804D009E0AE
:101CC00021480560A67005E0E078012802D11F4890
:101CD0000560E67019484168491C41600A2904D131
:101CE0004660BDE8F84F01F0DDBCBDE8F88F0000AC
:101CF000280500207B14AE47E17A943F18000020AD
:101D00002000002024040020380400201C040020AF
:101D10003230253032642D253032642D2530326446
:101D200000000000253032643A253032643A253014
:101D30003264000070050020000C014038000020D3
:101D400004000020080000200C00002010000020EB
:101D50007047FEE701684A69D24352050FD46FF419
:101D600080624A61002140F8301F20224273817353
:101D7000026942F0040202610173012070470020F1
:101D8000704700002DE9F84F0446006889460B9D16
:101D900001689846174641F4806101602068016837
:101DA00041F48071016000954FF0011B00225946FB
:101DB00020460A9B00F0E4F84FF4007A40B1206816
:101DC0000068C00501D5C4F840A00320BDE8F88F25
:101DD000216809F0FE0008612B46284920460A9A2E
:101DE00000F016F9F0BB20684169806900902A462E
:101DF00020460A9900F0A2F940B1206C04283AD19B
:101E00002068016841F40071016034E0FEB2B8F16D
:101E1000010F09D02168380A08612A4620460A992C
:101E200000F08CF90028E8D1206806612A46204697
:101E30000A9900F083F90028DFD12068016841F495
:101E40008071016000950022594620460A9B00F0EF
:101E500097F80028B3D1216809F0FF0040F0010095
:101E6000086100E007E02B46044920460A9A00F08A
:101E7000CFF80028AAD00120A8E700000200010046
:101E80002DE9F843044600680D46DDE9089701682E
:101E90009846164641F4807101604B4600224FF08F
:101EA00001112046009700F06BF848B120680068E7
:101EB000C00502D54FF4007020640320BDE8F8830C
:101EC000216805F0FE0008613B464A461549204658
:101ED00000F09EF888B920684169806900903A4610
:101EE0004946204600F02AF948B1206C042804D164
:101EF0002068016841F4007101600120DEE7F5B25D
:101F0000B8F1010F09D02168300A08613A46494604
:101F1000204600F013F90028E7D120680561002071
:101F2000CCE700000200010070B516460D460446DD
:101F30001EE02046FFF70EFF08B1012070BD681CAF
:101F400016D0FEF775FE801BA84200D885B9206820
:101F50004069C04340070BD5002044F8300F2021D2
:101F60006173A073216941F0200121612073E4E7CE
:101F700020684069C0434007DBD4002070BD0000EA
:101F80002DE9F047984617460D460446C1F307462B
:101F9000DDF820902AE000BFB8F1FF3F26D0FEF721
:101FA00047FEA0EB0901414502D8B8F1000F1DD151
:101FB0002068012E16D0806925EA00000004000C7C
:101FC00012D00020B84211D1002044F8300F202157
:101FD0006173A073216941F0200121612073012008
:101FE000BDE8F0874069E7E70120EBE72068012EB4
:101FF0000AD0806925EA00000004000C06D0002009
:10200000B842C9D00020EBE74069F3E70120F7E7C9
:102010002DE9F047984616460D4604464FF0000954
:102020004FF0200AC1F3074723E020684069C0430E
:10203000400515D42068016841F4007101602168F1
:102040006FF480604861C4F8309084F83DA084F853
:102050003E90216C41F00401216484F83C9021E021
:10206000701C06D0FEF7E4FDA0EB0800B04203D8D8
:1020700016B1012F1FD021E02068012F15D08069F3
:1020800025EA00000004000C18D000BF44F8309F7F
:1020900084F80DA084F80E90216941F0200121619F
:1020A00084F80C900120BDE8F087406925EA000023
:1020B0000004000CEAD12068406901E020688069D2
:1020C00025EA00000004000CAFD1ECE72DE9F04157
:1020D000002590460E460446202728E04069C0436C
:1020E000C0060CD454F8301B6FF01000486144F85F
:1020F00010596777A577206A2062257714E0FEF7EC
:1021000097FDA0EB0800B04200D886B9206840696E
:10211000C04340060BD544F8305F6773A573206950
:1021200040F02000206125730120BDE8F081206887
:102130004169C9434906D1D40020F6E770B5164677
:102140000D4604461EE02046FFF704FE08B10120BC
:1021500070BD681C16D0FEF76BFD801BA84200D82E
:1021600085B920684069C04300060BD5002044F8BB
:10217000300F20216173A073216941F0200121619A
:102180002073E4E720684069C0430006DBD40020E8
:1021900070BD000010B5114C002240212046FEF712
:1021A00042FD206820F070402060206840F04050E0
:1021B0002060002280212046FEF735FD01F0BCF8AA
:1021C000012240212046FEF72EFD01F0B5F8204601
:1021D0000022BDE810404021FEF725BD000C014063
:1021E0000E4810B5816986B041F0080181618069AF
:1021F000C02100F0080004900120CDE90010032167
:10220000CDE90201064C0246C0212046FEF70BFD37
:1022100069462046FEF712FC06B010BD00100240D1
:10222000000C014010B5114C206820F07040206077
:10223000206840F040502060012280212046FEF7B7
:10224000F2FC012240212046FEF7EDFC01F074F87B
:10225000002280212046FEF7E6FC01F06DF82046C2
:102260000022BDE810404021FEF7DDBC000C01401B
:1022700010B5114C206820F070402060206840F0BC
:1022800040502060002240212046FEF7CCFC002276
:1022900080212046FEF7C7FC01F04EF801224021C4
:1022A0002046FEF7C0FC012280212046FEF7BBFC41
:1022B000BDE8104001F040B8000C014070B5184E68
:1022C00005463046316821F070413160316841F097
:1022D0004051316000224021FEF7A5FC0024280671
:1022E00001D5012200E0002280213046FEF79BFC50
:1022F0006806050E01F020F8012240213046FEF765
:1023000092FC01F019F8002240213046FEF78BFCC8
:1023100001F012F8641CE4B2082CE0D370BD000098
:10232000000C014000224FF400710148FEF77BBC15
:1023300000080140012251020148FEF774BC000070
:10234000000801402DE9F04786B000264548009678
:10235000019602960396816941F0100181618169BD
:1023600001F010010491816941F0200181618169CE
:1023700001F020010491816941F0080181618169C6
:1023800001F008010491816941F0040181618069D3
:10239000DFF8D48000F004004FF4005404900022D1
:1023A00021464046FEF73FFC0122DFF8C0901702AD
:1023B00039464846FEF737FC00224FF4F0514846B4
:1023C000FEF731FCDFF8A8A0002220215046FEF7DE
:1023D0002AFC0094022501240395CDE901466946B3
:1023E0004046FEF72BFB4FF47040CDE900066946EE
:1023F00002945046FEF722FBCDE900746946484638
:10240000CDE90245FEF71AFB60028DE8310069460E
:1024100048460395FEF712FB4FF4E05003958DE814
:10242000510069464846FEF709FB1020009011480C
:10243000CDE9010569465046FEF700FB20200395D3
:102440008DE8510069465046FEF7F8FA0022114621
:102450000A20FEF729FF0A20FEF718FF06B0BDE8A4
:10246000F087000000100240001001400008014009
:10247000000C0140000031100D4810B50B490160FF
:102480000C49416000214FF480428160C0E9031291
:1024900041618161C1610162FEF7D0FB002803D078
:1024A000BDE81040FEF760BA10BD000000540040C7
:1024B00080040020A08601000D4810B50B49016082
:1024C0000C49416000214FF480428160C0E9031251
:1024D00041618161C1610162FEF7B0FB002803D058
:1024E000BDE81040FEF740BA10BD000000580040A3
:1024F000D4040020A086010010B586B0002418483E
:102500000094019402940394049414490594016086
:1025100041F61F41C0E9011442F21071C0E90314F1
:102520008021C0E90541FFF797F908B1FEF71CFAD1
:102530004FF48050009069460948FFF717FA08B138
:10254000FEF712FA049404A905480594FFF750F920
:10255000002801D0FEF708FA06B010BD002C01409B
:102560002805002010B586B0002417480094019477
:102570000294039404944FF080410594016041F665
:102580001F41C0E90114C821C0E903148021816101
:10259000FFF762F908B1FEF7E7F94FF480500090B9
:1025A00069460948FFF7E2F908B1FEF7DDF904943E
:1025B00004A905480594FFF71BF9002801D0FEF790
:1025C000D3F906B010BD000070050020FEE7FEE75D
:1025D00070B50024002104F1B00000F022F90021C0
:1025E000084600F01EF90021102000F01AF900251D
:1025F0000121002000F015F96D1CEDB2802DF7D3FC
:10260000641CE4B2082CE5D370BD10B50021AE20E7
:1026100000F007F90021084600F003F9002110201E
:1026200000F0FFF80021402000F0FBF80021B0206E
:1026300000F0F7F80021812000F0F3F80021FF20DE
:1026400000F0EFF80021A12000F0EBF80021A62017
:1026500000F0E7F80021A82000F0E3F800213F2077
:1026600000F0DFF80021C82000F0DBF80021D320C3
:1026700000F0D7F80021084600F0D3F80021D5205B
:1026800000F0CFF80021802000F0CBF80021D82006
:1026900000F0C7F80021052000F0C3F80021D92080
:1026A00000F0BFF80021F12000F0BBF80021DA2093
:1026B00000F0B7F80021122000F0B3F80021DB2071
:1026C00000F0AFF80021302000F0ABF800218D20A1
:1026D00000F0A7F80021142000F0A3F80021BDE8C5
:1026E0001040AF2000F09DB810B50A460446002106
:1026F00002F1B00000F095F8102040EA141000211B
:1027000000F08FF804F00F00BDE81040002100F049
:1027100088B800002DE9F04115460E460746FFF740
:10272000E3FF0F48002400EB85150121285D00F030
:1027300078F8641CE4B2102CF7D3761CF1B238465A
:10274000FFF7D2FF00242819012190F8200000F0A3
:1027500068F8641CE4B2102CF5D3BDE8F0810000E9
:10276000500000202DE9F041203A00240D4680461B
:10277000D6B27F2803D900208D1C8046EDB2102BE5
:10278000294610D0FFF7B0FF164906EB460001EBD3
:1027900040050121285D00F044F8641CE4B2062CD9
:1027A000F7D3BDE8F081FFF79FFF0F4F04EB061052
:1027B0000121385C00F035F8641CE4B2082CF5D334
:1027C0006D1CE9B24046FFF78FFF002404EB0610B2
:1027D00038440121007A00F024F8641CE4B2082C8B
:1027E000F4D3DEE7BE3B0008E63D00082DE9F041EA
:1027F000984617460E46044600250DE043463146EE
:102800002046FFF7AFFF0834E4B2782C02D9002449
:10281000761CF6B26D1CEDB27A5D002AEED1BDE8F1
:10282000F081C0B209B100F0C6B800F0ADB8704791
:102830007047FEF7D3BC30B58FB028216846FDF74E
:102840009CFC14210AA8FDF798FC01210804CDE99D
:1028500000100024029402250491CDE907504FF4A2
:10286000E01009906846FEF71DFE08B172B6FEE75B
:102870000F20CDE90A054FF48060CDE90C4002211C
:102880000AA80E94FEF742FD002801D072B6FEE7BA
:102890000FB030BD704700000148FFF7D6B8000008
:1028A000280500200148FFF7D0B80000700500207F
:1028B000F0B50268164B174C174D4FF08047984201
:1028C00005D0B84203D0A04201D0A84203D122F0E3
:1028D00070064A683243984205D0B84203D0A042FD
:1028E00001D0A84203D122F44074CA6822434C6943
:1028F00022F08002224302608A68C2620A68826211
:10290000984201D10969016301214161F0BD0000D4
:10291000002C0140000400400008004010B584680D
:1029200042EA032224F47F440A432243826010BD1A
:10293000826822F070020A4342F00701816070470A
:1029400010B5036A046A24F001040462846924F067
:10295000F00444EA021423F00A020A43846102628A
:1029600010BD10B5036A046A24F01004046284697F
:1029700023F0A00324F4704444EA023243EA011134
:102980008261016210BDFEE710B50446FFF74AFC04
:102990007820FFF793FCFFF7FDFB0020FFF78EFC8C
:1029A000FFF7F8FB2046FFF789FCFFF7F3FBBDE8D4
:1029B0001040FFF75DBC10B50446FFF733FC7820EC
:1029C000FFF77CFCFFF7E6FB4020FFF777FCFFF703
:1029D000E1FB2046FFF772FCFFF7DCFBBDE810408F
:1029E000FFF746BC0FB4084B10B504A902AA039820
:1029F00000F0EEF8044602A9002000F06CFC20462E
:102A000010BC5DF814FB0000D73200080907090E5E
:102A1000002804DB00F1E02080F80014704700F08B
:102A20000F0000F1E02080F8141D704702E008C894
:102A3000121F08C1002AFAD170477047002001E038
:102A400001C1121F002AFBD1704700002DE9FF5F72
:102A500082B00021DDE90430020DDDF840B003430F
:102A600018D044F61050A2F2FF32424315141198C8
:102A700001281FD0A5EB0B00401C5FEA000A4FF0B5
:102A800000064E4FDFF83891B046504615D5CAF1D2
:102A9000000413E0119801244AA3012801D16FEA30
:102AA0000B010298119AC0E90031C0E9024206B058
:102AB000BDE8F09FCBF10000DFE704460021404A6B
:102AC000491842EB0450CDE9001012E0E00707D0AE
:102AD00032463B4640464946FDF701FC8046894662
:102AE00032463B4610461946FDF7F9FB06460F46AF
:102AF0006410002CEAD1DDE90401DDE90023BAF11C
:102B0000000F06DAFDF7EBFB42464B46FDF7E7FB0D
:102B100005E0FDF7BFFD42464B46FDF7BBFD044611
:102B20000E460022284BFDF785FC03D84FF0FF30FE
:102B3000014607E00022254B20463146FDF728FBE1
:102B4000FDF717FE102409E0002C0ADB0A220023FF
:102B5000FDF7BAFC039B30321A55641E50EA01029D
:102B6000F2D1641C039AC4F111031444119A012A8E
:102B700003D0012208430DD10AE0084304D000200D
:102B80004FF0110B119072E7A3EB0B056D1E0DE0DA
:102B90005B4504DD4FF0000205F1010504E003DAB6
:102BA0004FF00002A5F10105002AECD0029811991E
:102BB000C0E90231C0E9004579E700000000144097
:102BC0000000F03F300000000000F0430000E03F54
:102BD0002DE9FF4F95B09A46884606460025EEE15E
:102BE000252877D100242746F94A0121039400E0E3
:102BF000044316F8013F203B01FA03F01042F7D1DD
:102C000030782A2811D06FF02F033078A0F13002ED
:102C1000092A16D8039A44F0020402EB820203EB5D
:102C200042021044761C0390EFE758F8042B0392FD
:102C3000002A03DA504244F40054039044F00204A2
:102C4000761C30782E2816D116F8010F44F00404B3
:102C50002A280DD06FF02F023078A0F13003092B15
:102C600009D807EB870302EB4303C718761CF3E789
:102C700058F8047B761C30786C280FD006DC4C2882
:102C800017D068280DD06A2814D104E0742810D019
:102C90007A280FD10DE044F400140AE044F48014C3
:102CA00001E044F440147278824202D104F58014A9
:102CB000761C761C307866280BD013DC582877D029
:102CC00009DC002875D04528F6D04628F4D04728DE
:102CD0001AD193E118E0632835D0642879D06528AB
:102CE00012D18BE1702873D008DC6728F1D06928F5
:102CF0006FD06E280DD06F2806D1ACE073282CD091
:102D0000752874D0782853D05246179990476D1C77
:102D100054E1C4F30250022809D003280DD0D8F89A
:102D2000001004280DD00D6008F1040846E1D8F821
:102D30000010EA17C1E90052F6E7D8F800100D803C
:102D4000F2E70D70F0E718F8041B8DF80010002072
:102D50008DF80100EB46012003E058F804BB4FF06A
:102D6000FF3061074FF0000102D40DE009F10101CD
:102D70008946B9420FDA8145F8DB1BF809100029B2
:102D8000F4D108E009F1010189468142FADB1BF820
:102D900009100029F6D103985346A0EB09072146F4
:102DA0003846179A00F080FA284400EB090507E03E
:102DB00044E008E10DE01BF8010B524617999047DB
:102DC000B9F10109F7D2534621463846179AF2E085
:102DD00039E00A21C4F302524FF0000B0091022A9D
:102DE00006D058F8040BC117032A09D00AE023E0E3
:102DF00008F1070020F00702F2E80201904605E022
:102E000000B2C117042A01D140B2C117002906DA65
:102E10000A460021404261EB02012D2202E0220518
:102E200004D52B228DF80420012203E0E20701D013
:102E30002022F7E7914657E00A2100E010214FF0E9
:102E4000000B00910BE010214FF0000B44F0040444
:102E50000827009103E008204FF0000B0090C4F316
:102E60000252022A05D058F8040B0021032A08D088
:102E700008E008F1070020F00702F2E8020190469E
:102E800003E080B2042A00D1C0B24FF0000922074B
:102E90002AD53278702A07D0DDF800C08CF0100CEB
:102EA0005CEA0B0C05D00EE040228DF804200122D4
:102EB00008E050EA010306D030238DF804308DF885
:102EC000052002229146009B83F0080353EA0B037E
:102ED0000AD150EA010201D1620705D530228DF8EE
:102EE00004204FF001097F1E3278582A04D039A2FD
:102EF0000C920CAA02920BE03BA2F9E75B46009A07
:102F0000FDF7E2FA0C9B9B5C029A521E0292137030
:102F100050EA0102F2D1029804A9081A00F1200B2C
:102F2000600702D524F4803400E001275F4502DD0C
:102F3000A7EB0B0000E0002000EB0B0100900398D2
:102F40004944401A0390E00306D453462146179A99
:102F5000039800F0A9F90544002706E001A85246AD
:102F6000C05D179990476D1C7F1C4F45F6DBE00351
:102F70000CD553462146179A039800F095F905445D
:102F800004E030205246179990476D1C0099481E66
:102F900000900029F5DC08E002980299524600787A
:102FA000491C0291179990476D1CBBF10001ABF1D0
:102FB000010BF1DC5BE100F065F90544761C30782B
:102FC00000287FF40DAE19B02846BDE8F08F000050
:102FD00009280100303132333435363738396162EF
:102FE00063646566000000003031323334353637B3
:102FF000383941424344454600000000600700D490
:10300000062708F1070020F00700F0E802238046B9
:1030100003F0004C5FEA0C0001D097A009E0200506
:1030200001D596A005E0E00701D095A001E0AFF240
:103030004C001390307823F0004365280CD006DC58
:10304000452809D046281DD047287FD13BE0662877
:1030500018D067287AD136E00021112F01DB11202A
:1030600000E0781CCDE9000104A90CA8FFF7EEFCF4
:10307000DDE90D010C9A4FF0000B07F101091092E8
:1030800000914EE04FF000400097CDE9011004A9F7
:103090000CA8FFF7DBFCDDE90D020C9B0F994FF04C
:1030A000000B91461093009211B9791C00EB0109B5
:1030B000B7EB090003D4C0F1FF3B07F10109A9EB0D
:1030C0000700019042E0012F00DA01270021112FB3
:1030D00001DD112000E03846CDE9000104A90CA86B
:1030E000FFF7B4FCDDE90D010C9A00914FF0000BE5
:1030F000B946109221070FD4009A4A4503DA914647
:1031000001E0A9F10109B9F1010F05DD109AA9F15A
:103110000101515C3029F4D0B84202DA10F1040FF9
:1031200003DA0121CDE9011010E0002803DC83441B
:10313000A9EB000102E0411C494500DD8946A0EBF6
:103140000B00401C01904FF000400290200705D476
:103150000198484502DB4FF0FF30019000208DF8C8
:103160004B0002980DF14B07B0F1004F25D0022023
:103170000C902B200D90029800280CDA404202900F
:103180002D200D9007E00A210298FDF787F93031D4
:10319000029007F8011D0C99481E0C900029F2DCE2
:1031A00002980028EFD1791E0D980870307800F051
:1031B000200040F0450007F8020D11A8C01BC01DFB
:1031C00002901398007800B1012000EB09010198EA
:1031D00001EBE071029801440398401A401E0390ED
:1031E000E00306D453462146179A039800F05CF892
:1031F00005441398007818B15246179990476D1CF2
:10320000E00323D553462146179A039800F04CF863
:1032100005441BE0BBF1000F07DB0098584504DDB7
:103220001098179910F80B0001E0179930205246BA
:10323000904701980BF1010B401E05F1010501902B
:1032400004D12E205246179990476D1CB9F1000108
:10325000A9F10109DEDC05E017F8010B52461799C8
:1032600090476D1C0299481E02900029F4DC5346D9
:103270002146179A03989EE62D0000002B000000BF
:10328000200000002DE9F041044600251E461746A7
:10329000880404D405E039462020B0476D1C641E24
:1032A000F9D52846BDE8F0812DE9F0410446002516
:1032B0001E469046C80301D5302700E02027880429
:1032C00004D505E041463846B0476D1C641EF9D56B
:1032D0002846BDE8F0810A68531C0B6010707047E7
:1032E0000621024A0020FDF7EBBA00001C04002072
:1032F00010B500220AE0835C03F00F041B0903EB06
:10330000830304EB43038354521CD2B28A42F2D3A8
:1033100010BD30B500220A230BE0845CB4FBF3F54A
:1033200003FB1545B4FBF3F445EA04148454521C22
:10333000D2B28A42F1D330BD7047000010B586B0DA
:1033400000F0C4F900210B220846FFF7E3F90C2234
:1033500000211020FFF7DEF90D2200212020FFF7C9
:10336000D9F90E2200213020FFF7D4F905220021DF
:103370004020FFF7CFF9062200215020FFF7CAF9BD
:10338000142101A8FCF7F9FE114C12A1A0780090BD
:103390006378227801A8FFF725FB082301AA0421FE
:1033A0001020FFF723FA142101A8FCF7E6FE60794C
:1033B00000902379E2780CA101A8FFF713FB082302
:1033C00001AA05211820FFF711FA06B010BD000070
:1033D000300000203230253032642D253032642D0B
:1033E0002530326400000000253032643A25303246
:1033F000643A25303264000070B5144886B08169A3
:1034000041F0040181618069012400F0040004900E
:103410004FF48060CDE900040D4E03256946039505
:103420003046FDF70BFBE002CDE900046946039549
:103430003046FDF703FB2003CDE900046946039500
:103440003046FDF7FBFA06B070BD000000100240E8
:103450000008014010B50446FFF7CEFF002C2AD02B
:1034600007211548FFF755FF00218E2000F0F4F8E2
:10347000114C8C20217800F0EFF86178882000F062
:10348000EBF8A178862000F0E7F8E178842000F0DE
:10349000E3F82179822000F0DFF86179802000F0E4
:1034A000DBF8A1798A2000F0D7F88021BDE8104030
:1034B0008E2000F0D1B810BD1C04002010B58D2066
:1034C00000F048F80F4C2070892000F043F860703D
:1034D000872000F03FF8A070852000F03BF8E070F6
:1034E000832000F037F82071812000F033F86071FC
:1034F0008B2000F02FF8A0712046BDE81040072176
:10350000FFF7F6BE1C0400202DE9F041002400F076
:1035100045F80F4E00254FF4006837156408414602
:103520003046FDF77BFB012801D144F080040122E5
:1035300039463046FDF777FB002239463046FDF725
:1035400072FB6D1CEDB2082DE8D32046BDE8F0817A
:103550000008014070B5104E04464FF4805500221B
:1035600029463046FDF75FFB0022A9103046FDF7E3
:103570005AFB012229463046FDF755FB204600F054
:1035800045F8FFF7C1FF0446002229463046FDF703
:103590004AFB204670BD0000000801400B4800B502
:1035A000816985B041F0040181618069694600F05C
:1035B000040004904FF4006000900020019001206E
:1035C00002900348FDF73AFA05B000BD0010024032
:1035D000000801400B4800B5816985B041F0040145
:1035E00081618069694600F0040004904FF4006036
:1035F000009001200190032003900348FDF71EFA7C
:1036000005B000BD00100240000801402DE9F04166
:103610000546FFF7DFFF0F4F00244FF400683E150B
:10362000E80701D0012200E0002241463846FDF7BC
:10363000FAFA6D08012231463846FDF7F4FA002205
:1036400031463846FDF7EFFA641CE4B2082CE7D3A4
:10365000BDE8F081000801402DE9F041104D0F4612
:1036600006464FF48054002221462846FDF7DBFA37
:103670000022A1102846FDF7D6FA0122214628464D
:10368000FDF7D1FA3046FFF7C1FF3846FFF7BEFF1E
:1036900021462846BDE8F0410022FDF7C4BA0000EB
:1036A0000008014070B5084D6424012220212846FD
:1036B000FDF7B9FA641EFDD22846BDE8704000222D
:1036C0002021FDF7B0BA0000000C01400621024A9B
:1036D0000020FDF7E1B8000030000020A6B0FDF7A3
:1036E00085FDFFF7A8F8FEF72DFEFEF7C5FEFEF7F5
:1036F000E3FEFEF701FFFEF735FFFA48FEF70AF991
:10370000F948FEF707F92A22F84911A8FCF71CFD31
:10371000F64C608DADF86E00E06A1C90206B1D9039
:10372000092204F134011EA8FCF70EFD94F83D00B7
:103730008DF8810094F83E008DF88200206C219075
:10374000606C2290A06C2390E06C2490206D2590FA
:10375000442215A96846FCF7F7FC0DF1440C9CE8DF
:103760000F00FDF75DF80020FFF774FEE14CE04923
:103770000020C4E90601FEF733FDFEF746FFFEF721
:1037800027FF002211461046FEF7C4FF0122002148
:103790001020FEF7BFFF10233A2200212020FEF761
:1037A000E1FF3221D448FCF7E8FCD4E90623D3A199
:1037B000D148FFF717F91023CF4A00213020FFF737
:1037C00015F8002202211046FEF7A4FF022211463E
:1037D0001020FEF79FFF10233A2202212020FEF73F
:1037E000C1FF3221C448FCF7C8FCD4E90823C5A1B5
:1037F000C148FFF7F7F81023BF4A02213020FEF737
:10380000F5FF032204210020FEF784FF0422114665
:103810001020FEF77FFF10233A2204212020FEF71C
:10382000A1FF3221B448FCF7A8FCD4E90A23B7A1D0
:10383000B148FFF7D7F81023AF4A04213020FEF734
:10384000D5FF052206210020FEF764FF062211465F
:103850001020FEF75FFF10233A2206212020FEF7FA
:1038600081FFFFF72BFEA44A0823283A06213020C7
:10387000FEF7BCFFA04A0823143A07213820FEF7C0
:10388000B5FFA44E00256069FCF7A8FDC4E9060158
:1038900004F120000FC8FCF7CDFD06D8FEF74AFD65
:1038A000FDF756F8FFF71CFD03E0FEF73BFDFDF7C3
:1038B00047F8606868B1FEF78BFE2078401CC0B204
:1038C0002070042801D1012020706560A560E560AA
:1038D00025612078012806D002287CD00328D2D187
:1038E000FFF72CFDCFE7002211461046FEF712FF2E
:1038F000012200211020FEF70DFF10233A220021A3
:103900002020FEF72FFF32217B48FCF736FCD4E95C
:10391000062381A17848FFF765F81023764A002135
:103920003020FEF763FF002202211046FEF7F2FE70
:10393000022211461020FEF7EDFE10233A2202214A
:103940002020FEF70FFF32216B48FCF716FCD4E96C
:1039500008236CA16848FFF745F81023664A022146
:103960003020FEF743FF032204210020FEF7D2FEA1
:10397000042211461020FEF7CDFE10233A22042126
:103980002020FEF7EFFE32215B48FCF7F6FBD4E97E
:103990000A235EA15848FFF725F81023564A042150
:1039A0003020FEF723FF052206210020FEF7B2FE9D
:1039B000062211461020FEF7ADFE10233A22062102
:1039C0002020FEF7CFFEFFF779FD4B4A0823283A67
:1039D0000621302000E015E0FEF708FF464A0823E4
:1039E000143A07213820FEF701FF206900283FF430
:1039F00079AF207801287FF475AF00212561C4E9F3
:103A0000081140E7002103220846FEF783FE042246
:103A100000211020FEF77EFE072200212020FEF765
:103A200079FE082200213020FEF774FE03220221D5
:103A30000020FEF76FFE042202211020FEF76AFE2E
:103A400010233A2202212020FEF78CFE32212A4840
:103A5000FCF793FBD4E90A232CA12748FEF7C2FF09
:103A60001023254A02213020FEF7C0FE10232DA28C
:103A700004210020FEF7BAFE092204212020FEF7CF
:103A800049FE0A2204212D20FEF744FE102327A21E
:103A900006210020FEF7AAFEA06870B1D4E90A0151
:103AA0000022264BFCF7AEFC07D8D4E90A0100221D
:103AB0003346FCF76DFBA56010E0E0680028A0D05D
:103AC000D4E90A0100221E4BFCF7B4FC99D8D4E9D2
:103AD0000A0100223346FCF7FCFBE560C4E90A0159
:103AE000D1E600002805002070050020D404002045
:103AF00000000C40000000204C040020252E3366FE
:103B00006D2F7300252E33666D5E3300252E3066D3
:103B10006D5E33000000F03F2530362E33666D2F8A
:103B2000730000004B455931000000004B455932ED
:103B30002B2B204B4559332D2D00000000388F4092
:103B400000001440104911484A7862B901224A70B5
:103B50000F4A136843F080731360002242600268CA
:103B600042F00102026043684A689342436803D905
:103B7000D243521C1A4400E09A1A40684860482018
:103B8000B2FBF0F07047000010040020001000E0CD
:103B9000FCED00E0010202030405060708090A0B18
:103BA0000C0D0E0F101000000000000000000102BC
:103BB00003040607080900000000010203040000D6
:103BC000000000000000002F0000000007000700B8
:103BD00000147F147F1400242A7F2A1200626408D4
:103BE0001323003649552250000005030000000051
:103BF0001C224100000041221C000014083E081451
:103C00000008083E0808000000A06000000808083E
:103C10000808000060600000002010080402003E58
:103C20005149453E0000427F4000004261514946F3
:103C3000002141454B31001814127F1000274545E3
:103C40004539003C4A4949300001710905030036F5
:103C50004949493600064949291E00003636000008
:103C6000000056360000000814224100001414140D
:103C70001414000041221408000201510906003208
:103C80004959513E007C1211127C007F4949493646
:103C9000003E41414122007F4141221C007F4949B1
:103CA0004941007F09090901003E4149497A007FE5
:103CB0000808087F0000417F4100002040413F018B
:103CC000007F08142241007F40404040007F020CEA
:103CD000027F007F0408107F003E4141413E007F8B
:103CE00009090906003E4151215E007F0919294654
:103CF0000046494949310001017F0101003F404030
:103D0000403F001F2040201F003F4038403F0063DD
:103D100014081463000708700807006151494543FF
:103D200000007F41410000552A552A5500004141BD
:103D30007F000004020102040040404040400000B7
:103D400001020400002054545478007F4844443851
:103D500000384444442000384444487F00385454D8
:103D6000541800087E0901020018A4A4A47C007F56
:103D7000080404780000447D4000004080847D00F9
:103D8000007F102844000000417F4000007C0418A0
:103D90000478007C0804047800384444443800FC6B
:103DA000242424180018242418FC007C0804040887
:103DB00000485454542000043F444020003C4040FC
:103DC000207C001C2040201C003C4030403C004433
:103DD00028102844001CA0A0A07C004464544C443B
:103DE000141414141414000000000000000000005B
:103DF000000000000000000000F8000000000000CB
:103E000000333000000000100C06100C060000000B
:103E100000000000000040C07840C0784000043F2F
:103E200004043F040400007088FC083000000018FF
:103E300020FF211E0000F008F000E0180000002123
:103E40001C031E211E0000F00888700000001E21C7
:103E500023241927211010160E0000000000000076
:103E6000000000000000000000E018040200000054
:103E700000071820400000020418E0000000004085
:103E8000201807000000404080F0804040000202FF
:103E9000010F01020200000000F00000000001011B
:103EA000011F01010100000000000000000080B0BF
:103EB0007000000000000000000000000000000191
:103EC00001010101010100000000000000000030BC
:103ED0003000000000000000000080601804006056
:103EE00018060100000000E010080810E000000FB4
:103EF000102020100F00001010F80000000000201B
:103F0000203F202000000070080808887000003062
:103F1000282422213000003008888848300000180A
:103F2000202020110E000000C02010F80000000723
:103F30000424243F240000F8088888080800001999
:103F4000212020110E0000E0108888180000000FCA
:103F5000112020110E0000380808C83808000000A1
:103F6000003F000000000070880808887000001CF6
:103F7000222121221C0000E010080810E0000000AF
:103F8000312222110F00000000C0C000000000001C
:103F90000030300000000000008000000000000041
:103FA0008060000000000000804020100800000138
:103FB00002040810200040404040404040000404FB
:103FC00004040404040000081020408000000020C5
:103FD000100804020100007048080808F000000002
:103FE000003036010000C030C828E810E000071893
:103FF000272423140B000000C038E0000000203C00
:1040000023020227382008F8888888700000203FA3
:10401000202020110E00C0300808080838000718BA
:1040200020202010080008F808080810E000203FB1
:10403000202020100F0008F88888E8081000203F92
:1040400020202320180008F88888E8081000203F66
:10405000200003000000C0300808083800000718DE
:104060002020221E020008F808000008F808203F5F
:10407000210101213F20000808F808080000002065
:10408000203F2020000000000808F8080800C08039
:1040900080807F00000008F888C028180800203FB2
:1040A00020012638200008F8080000000000203F0A
:1040B00020202020300008F8F800F8F80800203F01
:1040C000003F003F200008F830C00008F808203FFB
:1040D000200007183F00E01008080810E0000F104B
:1040E000202020100F0008F808080808F000203FE2
:1040F000210101010000E01008080810E0000F187D
:10410000242438504F0008F8888888887000203FA1
:104110002000030C302000708808080838000038A0
:10412000202121221C00180808F8080818000000A7
:10413000203F2000000008F808000008F808001FD1
:10414000202020201F000878880000C838080000C0
:1041500007380E010000F80800F80008F800033CDA
:104160000700073C030008186880806818082030A2
:104170002C03032C30200838C800C8380800000081
:10418000203F2000000010080808C8380800203828
:10419000262120201800000000FE0202020000007C
:1041A000007F40404000000C30C0000000000000D4
:1041B00000010638C00000020202FE0000000040BC
:1041C00040407F00000000000402020204000000E2
:1041D00000000000000000000000000000008080DF
:1041E00080808080808000020204000000000000C7
:1041F00000000000000000008080808000000019A6
:10420000242222223F2008F8008080000000003F86
:10421000112020110E000000008080800000000EA0
:10422000112020201100000000808088F800000E7E
:10423000112020103F200000808080800000001F9F
:10424000222222221300008080F088888818002013
:10425000203F202000000000808080808000006BD4
:1042600094949493600008F8008080800000203FC0
:10427000210000203F2000809898000000000020CE
:10428000203F20200000000000809898000000C01F
:104290008080807F000008F8000080808000203F40
:1042A00024022D302000000808F800000000002043
:1042B000203F202000008080808080808000203F80
:1042C00020003F20003F8080008080800000203F51
:1042D000210000203F200000808080800000001F1F
:1042E000202020201F00808000808000000080FFB0
:1042F000A12020110E000000008080808000000EB0
:10430000112020A0FF8080808000808080002020FD
:104310003F21200001000000808080808000003369
:10432000242424241900008080E080800000000004
:10433000001F202000008080000000808000001FFF
:10434000202020103F20808080000080808000019D
:104350000E300806010080800080008080800F30D1
:104360000C030C300F000080800080808000002053
:10437000312E0E312000808080000080808080817E
:104380008E701806010000808080808080000021EF
:10439000302C2221300000000000807C020200004E
:1043A0000000003F404000000000FF00000000004F
:1043B0000000FF0000000002027C800000000040BE
:1043C000403F00000000000601010202040400005A
:1043D0000000000000000000F8430008000000207A
:1043E00024040000C8070008BC450008240400207D
:1043F000EC0500003C2A0008022D0103104440296E
:104400004082101324F4000F121022640C804444E4
:1044100064554E445466C4150404FE011480403FA4
:1044200012FF05113F40407015404244CC1EF494E9
:104430009494FF040312F604000F1140201F205132
:104440004844427F42444C61204E202020BEAA01B5
:104450000C10BF223020111C8080AF1C1AFF0404F6
:1044600019AF80801AFF4809123E114A40013A7F75
:10447000060312604016FE0222DA061BFE92010BB2
:1044800012FF025A15081008070F11FF42240814E2
:1044900022C011000F12FC848484FE1410901010AE
:1044A00010FF10101A3F19323F05142340807F1F60
:1044B000F80102F61012010C12FA1202811AFF43DF
:1044C0002A11010A133F410810124020F807F0A0FA
:1044D000904F5424D44C848080C111000A130F8063
:1044E00092524925241208180A04C4444444FE4444
:1044F00020DFA70B11F018C0080F107F20201090AC
:1045000080402116081661C04080244244CC08082F
:1045100011FC04A42424A263BF19A1080C101F20BD
:104520005887908885828588D840193B080D1304E8
:1045300004E4242424F4240404FE04801B202F20FB
:104540001A2F0802197F1AFF1E0B1230207F490113
:104550003A7F060A1160801502048C400809112078
:104560001817D0105038101F1302FF080B1080408E
:1045700020100C030C1060C04017101010FF90505A
:10458000080811FE828292A29F02402B4281B60847
:104590000810FF221408162160A200101480928ACD
:1045A000BFAABBCAFA84A7AA92AEE2A04BEAAA01AC
:0C45B0000220EA161804090A0112020099
:04000005080000ED02
:00000001FF
