:020000040800F2
:100000001807002005010008CF1A0008791400081D
:10001000CD1A000881070008971D000800000000A5
:10002000000000000000000000000000311D00087A
:1000300083070008000000002F1D0008331D000882
:100040001F0100081F0100081F0100081F01000810
:100050001F0100081F0100081F0100081F01000800
:100060001F0100081F0100081F0100081F010008F0
:100070001F0100081F0100081F0100081F010008E0
:100080001F0100081F0100081F0100081F010008D0
:100090001F0100081F0100081F0100081F010008C0
:1000A0001F0100081F0100081F0100081F010008B0
:1000B0001F0100081F0100081F0100081F010008A0
:1000C0001F0100081F0100081F0100081F01000890
:1000D0001F0100081F0100081F0100081F01000880
:1000E000850700081F0100081F010008DFF810D075
:1000F00000F0CCFA00480047F9260008AFF3008072
:10010000180700200648804706480047FEE7FEE73C
:10011000FEE7FEE7FEE7FEE7FEE7FEE7FEE7FEE7B7
:10012000951D0008ED000008202A04DB203A21FA82
:1001300002F00021704721FA02F3D040C2F1200200
:10014000914008431946704740EA01039B0703D0DA
:1001500009E008C9121F08C0042AFAD203E011F806
:10016000013B00F8013B521EF9D27047D2B201E0C8
:1001700000F8012B491EFBD270470022F6E710B5AC
:1001800013460A4604461946FFF7F0FF204610BD05
:100190002DE9FE4F804681EA0300C00F0C46009017
:1001A00021F0004123F00045B8EB0200A94105D23F
:1001B0004046214690461C460B46024623F000402E
:1001C000104347D0270DC7F30A00C3F30A5102902A
:1001D000401A019040286BDAC3F3130040F4801BEF
:1001E0000098924620B10023D2EB030A63EB0B0B7D
:1001F00001985946C0F14002504600F029F90646E0
:100200000D4650465946019A00F031F910EB0800AE
:100210006141002487EA115284EAE7731A4340D00F
:10022000009A62B3019A012A4FEA075215DC001BBB
:1002300061EB02014FF0004202EA0752CDE90042B1
:10024000001C41F5801132462B4600F031F903B015
:10025000BDE8F08F40462146F9E7001B61EB020143
:10026000001C41F5801300185B412018A2F500170F
:1002700047EB030140EAD570B6196D4111E06D08F6
:100280004FEA360645EAC0754FEA0752001B61EB9C
:100290000201001C41F5801149084FEA30000019A5
:1002A000514132462B4603B0BDE8F04F00F0F1B8A3
:1002B0000098012240000023D0EB020263EBE073C0
:1002C000009821464FEAE074B8EB000061EB0401AE
:1002D000E9E783F000435BE781F0004158E72DE94F
:1002E000FE4F81EA030404F0004421F00041009431
:1002F0004FF0000B23F0004350EA01045ED052EAB5
:1003000003045BD0C3F30A54C1F30A552C44A4F28E
:10031000F3340194A0FB0254C1F3130141F48011A2
:10032000C3F3130343F4801301FB024400FB034EA9
:10033000840A970A44EA815447EA8357A4FB076872
:1003400002958D0A05FB07854FEA932C04FB0C549C
:100350002705029D4FEA065847EA1637B5EB080510
:100360006EEB070C870E920E47EA811742EA831262
:10037000A7FB0201B6EB0B0164EB00042B0D43EA73
:100380000C335E1844EB1C50DA465146E7FB020181
:10039000C5F313044FEA0B3343EA14534FEA043214
:1003A000019C43EA0603A4F10C040294009CCDE9ED
:1003B00000B400F07DF803B0BDE8F08F00200146E6
:1003C000F9E730B50B46014600202022012409E060
:1003D00021FA02F59D4205D303FA02F5491B04FAFE
:1003E00002F52844151EA2F10102F1DC30BD2DE911
:1003F000F05F0546002092469B46884606468146A9
:1004000040241BE02846414647462246FFF78CFE23
:1004100053465A46C01A914110D3114618462246F7
:1004200000F016F82D1A67EB01084F46224601200E
:10043000002100F00DF817EB00094E41201EA4F139
:100440000104DFDC484631462A464346BDE8F09FBA
:10045000202A04DB203A00FA02F100207047914084
:10046000C2F1200320FA03F3194390407047202A79
:1004700006DBCB17203A41FA02F043EAE07306E0CC
:1004800041FA02F3D040C2F12002914008431946DC
:10049000704710B5141E73F1000408DA401C41F1D6
:1004A000000192185B411A4301D120F0010010BDF8
:1004B0002DE9F04D92469B4611B1B1FA81F202E06E
:1004C000B0FA80F220329046FFF7C2FF04460F4692
:1004D00040EA0A0041EA0B0153465A46084313D04A
:1004E000114653EA010019D0C8F140025046FFF707
:1004F0001BFE05460E46504659464246FFF7A8FFEA
:10050000084305D0012004E020463946BDE8F08DBF
:100510000020054346EAE0762C4337430A986305FA
:10052000E40AA0EB08000022FD0A44EA47540A301E
:1005300002D500200146E9E7010510196941DDE90E
:10054000084500196941BDE8F04DA2E72DE9F04DDD
:1005500081EA030404F0004B21F0004514464FF0FB
:10056000000A23F0004150EA050220D054EA0102BB
:100570001DD0C5F30A570246C5F31303C1F3130098
:10058000C1F30A5640F4801543F48013A7EB060824
:10059000101BD64608F2FD3873EB050002D308F1B4
:1005A000010801E092185B41B8F1000F03DA002066
:1005B0000146BDE8F08D00204FF4801106468446C8
:1005C0000EE0171B73EB050705D3121B63EB050346
:1005D00006434CEA010C49084FEA300092185B418F
:1005E00050EA0107EDD152EA030012D082EA04007A
:1005F00083EA0501084305D0101BAB4106D2012256
:10060000002306E000224FF0004302E06FF00102F9
:1006100053101AEB06004CEB085110EB0A0041EBAB
:100620000B01BDE8F04DFFF734BFC1F30A52C1F32F
:10063000130140F2FF3341F480119A4202DA0020A4
:100640000146704740F233439A42A2F2334202DC41
:100650005242FFF769BDFFF7FBBE000030B5041E34
:1006600071F1000404DB4FF00044404264EB0101EF
:10067000141E73F1000405DB1C464FF00043524288
:1006800063EB0403994208BF904230BD064C074D0E
:1006900006E0E06840F0010394E807009847103452
:1006A000AC42F6D3FFF726FD583100087831000838
:1006B00070B58C1810F8015B15F0070301D110F824
:1006C000013B2A1106D110F8012B03E010F8016B51
:1006D00001F8016B5B1EF9D12B0705D40023521ED4
:1006E0000DD401F8013BFAE710F8013BCB1A921C3C
:1006F00003E013F8015B01F8015B521EF9D5A1423A
:10070000D8D3002070BD00000FB41FB52A2206A95F
:100710001A48FFF719FDBDF84200184C6085119882
:10072000E06212982063092213A904F13400FFF754
:100730000BFD9DF8550084F83D009DF8560084F8A7
:100740003E0016982064179860641898A064199861
:10075000E0641A9820650121FF2203A88DE80700B4
:100760000B460022A121204600F00AFA002800D002
:10077000012004B010BC5DF814FB0000C40200208E
:10078000FEE7704710B54FF4805000F025F84FF4A5
:10079000005000F021F84FF4804000F01DF8BDE853
:1007A00010404FF4004000F017B872B6FEE70000AA
:1007B00070B5044600F01AF90546601C02D00448E2
:1007C0000078044400F012F9401BA042FAD370BD37
:1007D0001800002070470000044910B50A68024262
:1007E00002D00860FFF7F6FF10BD000014040140BE
:1007F0002DE9F84FDFF8B8910024A9F1040B234646
:100800000F2709F1040AABF1040EC9E00125A54048
:100810002A40AA427DD1674ED1F804C0ACEB06084D
:10082000B44532D014DCBCF1030F3AD009DCBCF182
:10083000000F2AD0BCF1010F1CD0BCF1020F31D146
:100840001DE0BCF1110F17D0BCF1120F2AD119E035
:10085000B8F5881F19D006DCB8F5803F15D0B8F57B
:10086000801F1FD111E0B8F5001F0ED0B8F5041F8E
:1008700018D10AE0CB6815E0CB681B1D12E0CB68ED
:1008800008330FE0CB680C330CE08B682BB1012BE5
:100890004FF0080303D0456104E0042302E0056142
:1008A00000E00023FF2A01D8064601E000F104061B
:1008B0004FEA840501D9A5F12005D6F8008007FA92
:1008C00005FC28EA0C0803FA05F548EA0508C6F80D
:1008D00000804D68ED0062D5374DAE6946F00106E7
:1008E000AE61AD6924F0030605F001050095334DB6
:1008F00006EB050CDCF80850A607360F07FA06F8D9
:1009000025EA0805DFF8B880404503D14FF000081C
:1009100017E044E0DFF8AC80404502D14FF0010819
:100920000FE0DFF8A480404502D14FF0020808E054
:10093000DFF89880404502D14FF0030801E04FF006
:10094000040808FA06F848EA0508CCF808804D685B
:10095000D9F80060ED024D4601D5164300E09643FC
:100960002E604D68DAF80060AD02554601D5164399
:1009700000E096432E604D68DBF80060AD035D46F5
:1009800001D5164300E096432E604D68DEF8006006
:10099000ED03754601D5164300E096432E60641CB6
:1009A0000D682A46E5407FF431AFBDE8F88F0000BE
:1009B0000804014000001110001002400000014036
:1009C00000080140000C01400010014000140140EB
:1009D000C26821EA02030A4043EA0241016170470A
:1009E0000AB1016170470904FBE700000148806813
:1009F000704700001800002070B5040025D094F85E
:100A00003D00002520B984F83C50204600F0E0F974
:100A1000242084F83D002068016821F00101016074
:100A20002068016841F4004101602068016821F4F8
:100A30000041016000F046FB4D4A6168914201D8D7
:100A40004C4900E04C49884201D2012070BD4B491D
:100A50002368B0FBF1F15E6826F03F060E435E604E
:100A60006368934206D94FF4967359434FF47A73EF
:100A7000B1FBF3F12368491C1E6A26F03F0631439F
:100A800019626168914210D84900401EB0FBF1F232
:100A9000521CC2F30B02042A01D2042022E0B0FB54
:100AA000F1F0401CC0F30B001CE0A268F2B301EBB4
:100AB000C10303EB0116431EB3FBF6F35B1C43F4C7
:100AC00080431B0549D092B301EBC10202EB011137
:100AD000401EB0FBF1F0401CC0F30B0040F480401E
:100AE00040F400402168CA694CF6FF739A431043F2
:100AF000C861D4E9071001432068026822F0C002EF
:100B000011430160D4E9030101432068826848F27F
:100B1000FF339A4311438160D4E9050108432168FA
:100B2000CA6822F0FF021043C86001E00EE016E040
:100B30002068016841F0010101602564202084F8EB
:100B40003D00256384F83E50002070BD01EB410656
:100B5000431EB3FBF6F35B1CB3E70120C2E701EBD6
:100B60004101401EB0FBF1F0401CC0F30B00B7E7A1
:100B7000A086010080841E0000093D0040420F0055
:100B80002DE9FF4F83B00025DDE910799A469346A1
:100B90000446DDF848800095FFF728FF064694F8E4
:100BA0003D0020287CD1192301228549204600964A
:100BB00000F0F8FC0028F5D194F83C0001286FD033
:100BC000012084F83C0020680168C90703D101684E
:100BD00041F0010101602068016821F400610160B9
:100BE000222084F83D00402084F83E00256467629E
:100BF000A4F82A90608D20857248E062CDE90086D5
:100C000053465A462046049900F04EFC00287DD1F8
:100C1000208DDFF8B491202768B1012814D0022874
:100C2000206801681ED041F480610160206841693C
:100C300080690090B6E0206841698169009101688F
:100C400041F400710160ADE02068016821F4806129
:100C5000016072B62068416981690091016841F4C0
:100C600000710AE041F40061016072B620684169D8
:100C700081690091016821F48061016062B691E0B0
:100C8000032868D801280CD0022843464FF0000200
:100C90004946204600960FD000F084FCB0BB10E01F
:100CA0008BE032464146204600F022FD70BB2068B2
:100CB0000069616A08706CE000F074FC30BB72B6C9
:100CC00034E02068016821F48061016072B6206818
:100CD0000069616A0870606A401C6062208D401E75
:100CE0002085608D401E6085384846F2A811006856
:100CF000B0FBF1F0C0EBC00000EB80000090401EA4
:100D0000009008D020684069C04300E029E0400717
:100D10000CD50098F3E744F8305F6773A57320693A
:100D200040F02000206162B625731AE02068016857
:100D300041F40071016020680069616A0870606AAE
:100D4000401C6062218D491E2185618D491E61858F
:100D500062B621681BE032464146204600F0C8FCDE
:100D600018B1012007B0BDE8F08F20680069616A02
:100D70000870606A401C6062218D491E2185618D6A
:100D8000491E618521684A69D24352070AD409691C
:100D90000170606A401C6062208D401E2085608D5D
:100DA000401E6085208D00287FF46AAF84F83D7076
:100DB00084F83E5084F83C50D4E70220D2E700008B
:100DC000020010000000FFFF0400010024000020CA
:100DD00030B585B0002100910191029103911E4D23
:100DE00003681E4C122103221D48AB4216D1A36991
:100DF00043F00803A361A369039203F0080304937B
:100E0000C023CDE900316946FFF7F2FCE06940F408
:100E10000010E061E06900F4001019E0114DAB42F0
:100E200017D1A36943F00803A361A369039203F0F8
:100E3000080304934FF44063CDE900316946FFF79E
:100E4000D7FCE06940F48000E061E06900F48000D4
:100E5000049005B030BD0000005400400010024076
:100E6000000C01400058004002488168027811449B
:100E70008160704718000020074810B5016841F0F4
:100E800010010160032000F075F8002000F006F862
:100E900000F024F8002010BD0020024070B50D4D78
:100EA00004464FF47A712878B1FBF0F00A490968DA
:100EB000B1FBF0F000F0CCFA48B9102C07D20022B8
:100EC0002146501E00F036F800206C6070BD0120F5
:100ED00070BD000018000020240000200C4808B558
:100EE000816941F001018161816901F00101009195
:100EF000C16941F08051C161C06900F0805000902B
:100F00000448416821F0E06141F00071416008BD92
:100F10000010024000000140002809DB00F01F0221
:100F2000012191404009800000F1E020C0F800114B
:100F300070470000F0B40E4B1B680C46C3F302234D
:100F4000C3F10705042D00D90425191D072901D275
:100F5000002300E0DB1E012606FA05F1491E2140B0
:100F600099409E40761E16403143F0BC00F056BFBB
:100F70000CED00E0064900F0070208684FF6FF0399
:100F8000184040EA0220034A1043086070470000FE
:100F90000CED00E00000FA052DE9F0470F460500D2
:100FA00061D0434E306800F00700B84209D2306883
:100FB00020F0070038433060306800F00700B84286
:100FC00051D128683B4C810712D5400703D5606892
:100FD00040F4E06060602878000703D5606840F462
:100FE000605060606068A96820F0F00008436060AD
:100FF0002878C00728D06868012810D02168022806
:1010000010D0890700292EDA616821F0030101431D
:101010006160FFF7EBFC804641F288390DE0216802
:101020008903EFE78901EDE7FFF7E0FCA0EB08019A
:10103000494502D90320BDE8F0876068696800F07F
:101040000C00B0EB810FEFD1306800F00700B84220
:101050000BD9306820F0070038433060306800F06A
:101060000700B84201D00120E5E72878400705D500
:101070006068E96820F4E060084360602878000751
:1010800006D56068296920F4605040EAC1006060BC
:1010900000F028F86168084AC1F30311515CC840A8
:1010A0000649086006480068FFF7F8FE0020C2E71E
:1010B00000200240001002402629000824000020E1
:1010C0001C0000200448054900684968044AC1F32F
:1010D0000221515CC84070472400002000100240EB
:1010E000362900080E4A51680E4801F00C03042B03
:1010F00011D0082B0FD10C48C1F38343C903C05C46
:101100000AD55168084AC1F34041921E515C054A14
:101110005043B0FBF1F0704704494843704700006A
:101120000010024000127A001629000800093D0054
:101130002DE9F84F040070D02078C04DC00749D089
:101140006868C0F38100012807D06868C0F3810097
:10115000022809D16868C00306D52868800339D5FC
:1011600060680028E7D035E06068B0F5803F0BD0BC
:1011700010B1B0F5A02F11D0286820F4803028607D
:10118000286820F4802002E0286840F4803028603D
:10119000606890B1FFF72AFC06460AE0286840F430
:1011A00080202860F0E700BFFFF720FC801B642848
:1011B00073D828688003F7D50CE0FFF717FC0646C4
:1011C00005E000BFFFF712FC801B6428F0D82868F8
:1011D0008003F7D420789A4E80074FF001094FF032
:1011E000000839D5686810F00C0F07D06868C0F3A4
:1011F0008100022809D16868C00306D428688007E6
:1012000014D52069012808D110E02069B0B1C6F8D2
:101210000090FFF7EBFB074605E00AE1FFF7E6FB6E
:10122000C01B0228C4D828688007F7D528686169E0
:1012300020F0F80040EAC10028600DE0C6F8008008
:10124000FFF7D4FB074604E0FFF7D0FBC01B0228E2
:1012500023D828688007F7D4207800072CD5794850
:10126000A169D9B1C0F80090FFF7C0FB074604E0C0
:10127000FFF7BCFBC01B02280FD8686A8007F7D5B0
:1012800071484FF4FA510068B0FBF1F0009000BFD4
:101290000098411E0091FAD20EE080E0C0F8008074
:1012A000FFF7A4FB074604E0FFF7A0FBC01B0228E2
:1012B00075D8686A8007F7D42078400760D5E86958
:1012C0000027C00008D4E86940F08050E861E86970
:1012D000012700F0805000905C480168C90513D4D4
:1012E0000168834641F480710160FFF77FFB82460D
:1012F00006E000BFFFF77AFBA0EB0A0064284ED897
:10130000DBF80000C005F5D5E06801280AD008B177
:10131000052813D0286A20F001002862286A20F0EE
:10132000040002E0286A40F001002862E06841F20F
:10133000883B98B1FFF75AFB82460BE0286A40F0E1
:1013400004002862EEE700BFFFF750FBA0EB0A01A4
:1013500059455AD8286A8007F6D50CE0FFF746FBB6
:10136000824605E0FFF742FBA0EB0A0159454CD845
:10137000286A8007F6D41FB1E86920F08050E86140
:10138000E06988B36968C1F38101022944D0022869
:10139000C6F8608004D0FFF729FB044638E034E04B
:1013A000FFF724FB074604E0FFF720FBC01B0228E1
:1013B0002BD828688001F7D4206AB0F5803F05D18A
:1013C0006868A16820F4003008436860D4E9080127
:1013D0000843696821F4741108436860C6F8609096
:1013E000FFF704FB044606E025E000BFFFF7FEFA26
:1013F000001B022809D828688001F7D51BE000BF30
:10140000FFF7F4FA001B022802D90320BDE8F88F89
:1014100028688001F4D40EE00128F7D06868226AB9
:1014200000F48031914204D1616A00F47010884266
:1014300001D00120EAE70020E8E7000000100240A8
:10144000000042428004424224000020007000401C
:1014500010B5401EB0F1807F01D3012010BD4FF0C8
:10146000E02460610F21601700F0D8FC0020A0612B
:1014700007202061002010BDFEE701684A69D243C1
:1014800052050FD46FF480624A61002140F8301F8A
:10149000202242738173026942F0040202610173E7
:1014A00001207047002070472DE9F84F044600687E
:1014B00089460B9D01689846174641F4806101609A
:1014C0002068016841F48071016000954FF0011BB4
:1014D0000022594620460A9B00F064F84FF4007A37
:1014E00040B120680068C00501D5C4F840A00320C1
:1014F000BDE8F88F216809F0FE0008612B462849F5
:1015000020460A9A00F096F8F0BB2068416980698D
:1015100000902A4620460A9900F022F940B1206C3A
:1015200004283AD12068016841F40071016034E078
:10153000FEB2B8F1010F09D02168380A08612A46C5
:1015400020460A9900F00CF90028E8D120680661CD
:101550002A4620460A9900F003F90028DFD12068C6
:10156000016841F4807101600095002259462046CF
:101570000A9B00F017F80028B3D1216809F0FF009A
:1015800040F00100086100E007E02B4604492046D6
:101590000A9A00F04FF80028AAD00120A8E700001E
:1015A000020001002DE9F047984617460D46044613
:1015B000C1F30746DDF820902AE000BFB8F1FF3FF5
:1015C00026D0FFF713FAA0EB0901414502D8B8F184
:1015D000000F1DD12068012E16D0806925EA000079
:1015E0000004000C12D00020B84211D1002044F8B1
:1015F000300F20216173A073216941F02001216126
:1016000020730120BDE8F0874069E7E70120EBE7A0
:101610002068012E0AD0806925EA00000004000C31
:1016200006D00020B842C9D00020EBE74069F3E7BC
:101630000120F7E72DE9F047984616460D46044687
:101640004FF000094FF0200AC1F3074723E020685C
:101650004069C043400515D42068016841F4007119
:10166000016021686FF480604861C4F8309084F8AC
:101670003DA084F83E90216C41F00401216484F87F
:101680003C9021E0701C06D0FFF7B0F9A0EB0800F9
:10169000B04203D816B1012F1FD021E02068012FDE
:1016A00015D0806925EA00000004000C18D000BFA6
:1016B00044F8309F84F80DA084F80E90216941F021
:1016C0002001216184F80C900120BDE8F087406979
:1016D00025EA00000004000CEAD12068406901E01E
:1016E0002068806925EA00000004000CAFD1ECE717
:1016F0002DE9F041002590460E460446202728E0BB
:101700004069C043C0060CD454F8301B6FF0100081
:10171000486144F810596777A577206A20622577D9
:1017200014E0FFF763F9A0EB0800B04200D886B9D7
:1017300020684069C04340060BD544F8305F6773AA
:10174000A573206940F02000206125730120BDE8C9
:10175000F08120684169C9434906D1D40020F6E7E9
:1017600070B516460D4604461EE02046FFF785FE7E
:1017700008B1012070BD681C16D0FFF737F9801B37
:10178000A84200D885B920684069C04300060BD53F
:10179000002044F8300F20216173A073216941F0CB
:1017A000200121612073E4E720684069C0430006FE
:1017B000DBD4002070BD000010B5114C0022402188
:1017C0002046FFF70DF9206820F070402060206867
:1017D00040F040502060002280212046FFF700F9B1
:1017E00000F086FF012240212046FFF7F9F800F0C3
:1017F0007FFF20460022BDE810404021FFF7F0B8EF
:10180000000C01400E4810B5816986B041F0080116
:1018100081618069C02100F0080004900120CDE9B9
:1018200000100321CDE90201064C0246C0212046EA
:10183000FFF7D6F869462046FEF7DAFF06B010BD7E
:1018400000100240000C014010B5114C206820F03F
:1018500070402060206840F04050206001228021CC
:101860002046FFF7BDF8012240212046FFF7B8F8D7
:1018700000F03EFF002280212046FFF7B1F800F083
:1018800037FF20460022BDE810404021FFF7A8B8EE
:10189000000C014010B5114C206820F07040206011
:1018A000206840F040502060002240212046FFF791
:1018B00097F8002280212046FFF792F800F018FFE9
:1018C000012240212046FFF78BF80122802120468B
:1018D000FFF786F8BDE8104000F00ABF000C014099
:1018E00070B5184E05463046316821F070413160C0
:1018F000316841F04051316000224021FFF770F81B
:101900000024280601D5012200E000228021304673
:10191000FFF766F86806050E00F0EAFE0122402196
:101920003046FFF75DF800F0E3FE0022402130462C
:10193000FFF756F800F0DCFE641CE4B2082CE0D39C
:1019400070BD0000000C01402DE9F04385B0002679
:1019500039480096019602960396816941F010017C
:101960008161816901F010010491816941F02001D8
:101970008161816901F020010491816941F00801D0
:101980008161816901F008010491816941F00401DC
:1019900081618069DFF8A48000F004004FF40054F6
:1019A0000490002221464046FFF71AF80122DFF892
:1019B0009090170239464846FFF712F800224FF47C
:1019C000F0514846FFF70CF80094022501240395D6
:1019D000CDE9014669464046FEF70AFF4FF47040E4
:1019E00000901848CDE9010469461748FEF700FF4A
:1019F000CDE9007469464846CDE90245FEF7F8FE98
:101A000060028DE83100694648460395FEF7F0FE16
:101A10004FF4E05003958DE8510069464846FEF7C3
:101A2000E7FE002211462820FFF784FA2820FFF75E
:101A300073FA05B0BDE8F0830010024000100140C9
:101A40000008014000002110000C01400D4810B5B5
:101A50000B4901600C49416000214FF480428160D4
:101A6000C0E9031241618161C1610162FEF7C4FFF7
:101A7000002803D0BDE81040FEF797BE10BD00005F
:101A8000005400401C020020A08601000D4810B543
:101A90000B4901600C49416000214FF48042816094
:101AA000C0E9031241618161C1610162FEF7A4FFD7
:101AB000002803D0BDE81040FEF777BE10BD00003F
:101AC0000058004070020020A0860100FEE7FEE7FB
:101AD00070B50024002104F1B00000F022F90021CB
:101AE000084600F01EF90021102000F01AF9002528
:101AF0000121002000F015F96D1CEDB2802DF7D307
:101B0000641CE4B2082CE5D370BD10B50021AE20F2
:101B100000F007F90021084600F003F90021102029
:101B200000F0FFF80021402000F0FBF80021B02079
:101B300000F0F7F80021812000F0F3F80021FF20E9
:101B400000F0EFF80021A12000F0EBF80021A62022
:101B500000F0E7F80021A82000F0E3F800213F2082
:101B600000F0DFF80021C82000F0DBF80021D320CE
:101B700000F0D7F80021084600F0D3F80021D52066
:101B800000F0CFF80021802000F0CBF80021D82011
:101B900000F0C7F80021052000F0C3F80021D9208B
:101BA00000F0BFF80021F12000F0BBF80021DA209E
:101BB00000F0B7F80021122000F0B3F80021DB207C
:101BC00000F0AFF80021302000F0ABF800218D20AC
:101BD00000F0A7F80021142000F0A3F80021BDE8D0
:101BE0001040AF2000F09DB810B50A460446002111
:101BF00002F1B00000F095F8102040EA1410002126
:101C000000F08FF804F00F00BDE81040002100F054
:101C100088B800002DE9F04115460E460746FFF74B
:101C2000E3FF0F48002400EB85150121285D00F03B
:101C300078F8641CE4B2102CF7D3761CF1B2384665
:101C4000FFF7D2FF00242819012190F8200000F0AE
:101C500068F8641CE4B2102CF5D3BDE8F0810000F4
:101C6000280000202DE9F041203A00240D4680464E
:101C7000D6B27F2803D900208D1C8046EDB2102BF0
:101C8000294610D0FFF7B0FF164906EB460001EBDE
:101C900040050121285D00F044F8641CE4B2062CE4
:101CA000F7D3BDE8F081FFF79FFF0F4F04EB06105D
:101CB0000121385C00F035F8641CE4B2082CF5D33F
:101CC0006D1CE9B24046FFF78FFF002404EB0610BD
:101CD00038440121007A00F024F8641CE4B2082C96
:101CE000F4D3DEE73E290008662B00082DE9F04119
:101CF000984617460E46044600250DE043463146F9
:101D00002046FFF7AFFF0834E4B2782C02D9002454
:101D1000761CF6B26D1CEDB27A5D002AEED1BDE8FC
:101D2000F081C0B209B100F04EB800F035B870478C
:101D30007047FFF799B830B58FB028216846FEF795
:101D40001CFA14210AA8FEF718FA01210804CDE9AB
:101D500000100024029402250491CDE907504FF4AD
:101D6000E01009906846FFF7E3F908B172B6FEE7A4
:101D70000F20CDE90A054FF48060CDE90C40022127
:101D80000AA80E94FFF708F9002801D072B6FEE702
:101D90000FB030BD7047FEE710B50446FFF754FDA5
:101DA0007820FFF79DFDFFF707FD0020FFF798FD66
:101DB000FFF702FD2046FFF793FDFFF7FDFCBDE8AE
:101DC0001040FFF767BD10B50446FFF73DFD7820D2
:101DD000FFF786FDFFF7F0FC4020FFF781FDFFF7DE
:101DE000EBFC2046FFF77CFDFFF7E6FCBDE810406A
:101DF000FFF750BD0FB4084B10B504A902AA039811
:101E000000F0EEF8044602A9002000F06CFC204629
:101E100010BC5DF814FB0000E72600080907090E56
:101E2000002804DB00F1E02080F80014704700F087
:101E30000F0000F1E02080F8141D704702E008C890
:101E4000121F08C1002AFAD170477047002001E034
:101E500001C1121F002AFBD1704700002DE9FF5F6E
:101E600082B00021DDE90430020DDDF840B003430B
:101E700018D044F61050A2F2FF32424315141198C4
:101E800001281FD0A5EB0B00401C5FEA000A4FF0B1
:101E900000064E4FDFF83891B046504615D5CAF1CE
:101EA000000413E0119801244AA3012801D16FEA2C
:101EB0000B010298119AC0E90031C0E9024206B054
:101EC000BDE8F09FCBF10000DFE704460021404A67
:101ED000491842EB0450CDE9001012E0E00707D0AA
:101EE00032463B4640464946FEF7F9F98046894668
:101EF00032463B4610461946FEF7F1F906460F46B4
:101F00006410002CEAD1DDE90401DDE90023BAF117
:101F1000000F06DAFEF7E3F942464B46FEF7DFF91B
:101F200005E0FEF713FB42464B46FEF70FFB044667
:101F30000E460022284BFEF791FB03D84FF0FF30EE
:101F4000014607E00022254B20463146FEF720F9E6
:101F5000FEF76BFB102409E0002C0ADB0A220023A9
:101F6000FEF745FA039B30321A55641E50EA01020F
:101F7000F2D1641C039AC4F111031444119A012A8A
:101F800003D0012208430DD10AE0084304D0002009
:101F90004FF0110B119072E7A3EB0B056D1E0DE0D6
:101FA0005B4504DD4FF0000205F1010504E003DAB2
:101FB0004FF00002A5F10105002AECD0029811991A
:101FC000C0E90231C0E9004579E700000000144093
:101FD0000000F03F300000000000F0430000E03F50
:101FE0002DE9FF4F95B09A46884606460025EEE15A
:101FF000252877D100242746F94A0121039400E0DF
:10200000044316F8013F203B01FA03F01042F7D1D8
:1020100030782A2811D06FF02F033078A0F13002E9
:10202000092A16D8039A44F0020402EB820203EB59
:1020300042021044761C0390EFE758F8042B0392F9
:10204000002A03DA504244F40054039044F002049E
:10205000761C30782E2816D116F8010F44F00404AF
:102060002A280DD06FF02F023078A0F13003092B11
:1020700009D807EB870302EB4303C718761CF3E785
:1020800058F8047B761C30786C280FD006DC4C287E
:1020900017D068280DD06A2814D104E0742810D015
:1020A0007A280FD10DE044F400140AE044F48014BF
:1020B00001E044F440147278824202D104F58014A5
:1020C000761C761C307866280BD013DC582877D025
:1020D00009DC002875D04528F6D04628F4D04728DA
:1020E0001AD193E118E0632835D0642879D06528A7
:1020F00012D18BE1702873D008DC6728F1D06928F1
:102100006FD06E280DD06F2806D1ACE073282CD08C
:10211000752874D0782853D05246179990476D1C73
:1021200054E1C4F30250022809D003280DD0D8F896
:10213000001004280DD00D6008F1040846E1D8F81D
:102140000010EA17C1E90052F6E7D8F800100D8038
:10215000F2E70D70F0E718F8041B8DF8001000206E
:102160008DF80100EB46012003E058F804BB4FF066
:10217000FF3061074FF0000102D40DE009F10101C9
:102180008946B9420FDA8145F8DB1BF809100029AE
:10219000F4D108E009F1010189468142FADB1BF81C
:1021A00009100029F6D103985346A0EB09072146F0
:1021B0003846179A00F080FA284400EB090507E03A
:1021C00044E008E10DE01BF8010B524617999047D7
:1021D000B9F10109F7D2534621463846179AF2E081
:1021E00039E00A21C4F302524FF0000B0091022A99
:1021F00006D058F8040BC117032A09D00AE023E0DF
:1022000008F1070020F00702F2E80201904605E01D
:1022100000B2C117042A01D140B2C117002906DA61
:102220000A460021404261EB02012D2202E0220514
:1022300004D52B228DF80420012203E0E20701D00F
:102240002022F7E7914657E00A2100E010214FF0E5
:10225000000B00910BE010214FF0000B44F0040440
:102260000827009103E008204FF0000B0090C4F312
:102270000252022A05D058F8040B0021032A08D084
:1022800008E008F1070020F00702F2E8020190469A
:1022900003E080B2042A00D1C0B24FF00009220747
:1022A0002AD53278702A07D0DDF800C08CF0100CE7
:1022B0005CEA0B0C05D00EE040228DF804200122D0
:1022C00008E050EA010306D030238DF804308DF881
:1022D000052002229146009B83F0080353EA0B037A
:1022E0000AD150EA010201D1620705D530228DF8EA
:1022F00004204FF001097F1E3278582A04D039A2F9
:102300000C920CAA02920BE03BA2F9E75B46009A02
:10231000FEF76DF80C9B9B5C029A521E02921370A2
:1023200050EA0102F2D1029804A9081A00F1200B28
:10233000600702D524F4803400E001275F4502DD08
:10234000A7EB0B0000E0002000EB0B0100900398CE
:102350004944401A0390E00306D453462146179A95
:10236000039800F0A9F90544002706E001A85246A9
:10237000C05D179990476D1C7F1C4F45F6DBE0034D
:102380000CD553462146179A039800F095F9054459
:1023900004E030205246179990476D1C0099481E62
:1023A00000900029F5DC08E0029802995246007876
:1023B000491C0291179990476D1CBBF10001ABF1CC
:1023C000010BF1DC5BE100F065F90544761C307827
:1023D00000287FF40DAE19B02846BDE8F08F00004C
:1023E00009280100303132333435363738396162EB
:1023F00063646566000000003031323334353637AF
:10240000383941424344454600000000600700D48B
:10241000062708F1070020F00700F0E802238046B5
:1024200003F0004C5FEA0C0001D097A009E0200502
:1024300001D596A005E0E00701D095A001E0AFF23C
:102440004C001390307823F0004365280CD006DC54
:10245000452809D046281DD047287FD13BE0662873
:1024600018D067287AD136E00021112F01DB112026
:1024700000E0781CCDE9000104A90CA8FFF7EEFCF0
:10248000DDE90D010C9A4FF0000B07F101091092E4
:1024900000914EE04FF000400097CDE9011004A9F3
:1024A0000CA8FFF7DBFCDDE90D020C9B0F994FF048
:1024B000000B91461093009211B9791C00EB0109B1
:1024C000B7EB090003D4C0F1FF3B07F10109A9EB09
:1024D0000700019042E0012F00DA01270021112FAF
:1024E00001DD112000E03846CDE9000104A90CA867
:1024F000FFF7B4FCDDE90D010C9A00914FF0000BE1
:10250000B946109221070FD4009A4A4503DA914642
:1025100001E0A9F10109B9F1010F05DD109AA9F156
:102520000101515C3029F4D0B84202DA10F1040FF5
:1025300003DA0121CDE9011010E0002803DC834417
:10254000A9EB000102E0411C494500DD8946A0EBF2
:102550000B00401C01904FF000400290200705D472
:102560000198484502DB4FF0FF30019000208DF8C4
:102570004B0002980DF14B07B0F1004F25D002201F
:102580000C902B200D90029800280CDA404202900B
:102590002D200D9007E00A210298FDF712FF30313F
:1025A000029007F8011D0C99481E0C900029F2DCDE
:1025B00002980028EFD1791E0D980870307800F04D
:1025C000200040F0450007F8020D11A8C01BC01DF7
:1025D00002901398007800B1012000EB09010198E6
:1025E00001EBE071029801440398401A401E0390E9
:1025F000E00306D453462146179A039800F05CF88E
:1026000005441398007818B15246179990476D1CED
:10261000E00323D553462146179A039800F04CF85F
:1026200005441BE0BBF1000F07DB0098584504DDB3
:102630001098179910F80B0001E0179930205246B6
:10264000904701980BF1010B401E05F10105019027
:1026500004D12E205246179990476D1CB9F1000104
:10266000A9F10109DEDC05E017F8010B52461799C4
:1026700090476D1C0299481E02900029F4DC5346D5
:102680002146179A03989EE62D0000002B000000BB
:10269000200000002DE9F041044600251E461746A3
:1026A000880404D405E039462020B0476D1C641E20
:1026B000F9D52846BDE8F0812DE9F0410446002512
:1026C0001E469046C80301D5302700E02027880425
:1026D00004D505E041463846B0476D1C641EF9D567
:1026E0002846BDE8F0810A68531C0B6010707047E3
:1026F0006420401EFDD27047A6B0FEF7BDFBFFF779
:102700001AFBFFF721F9FFF7A1F9FFF7BFF92A221A
:102710006C4911A8FDF718FD6A4C608DADF86E008C
:10272000E06A1C90206B1D90092204F134011EA860
:10273000FDF70AFD94F83D008DF8810094F83E0005
:102740008DF88200206C2190606C2290A06C239008
:10275000E06C2490206D2590442215A96846FDF771
:10276000F3FC0DF1440C9CE80F00FDF7CDFF574C36
:1027700055490020C4E90001FFF744F8FFF7C5F907
:10278000FFF7A6F9002211461046FFF743FA01228F
:1027900000211020FFF73EFA10233A2200212020CA
:1027A000FFF760FA32214A48FDF7E7FCD4E900233D
:1027B00048A14748FFF71EFB1023454A002130205F
:1027C000FFF794FA002202211046FFF723FA0222B3
:1027D00011461020FFF71EFA10233A220221202072
:1027E000FFF740FA32213A48FDF7C7FCD4E902234B
:1027F0003AA13748FFF7FEFA1023354A022130206C
:10280000FFF774FA032204210020FFF703FA0422E1
:1028100011461020FFF7FEF910233A220421202050
:10282000FFF720FA32212A48FDF7A7FCD4E9042358
:102830002CA12748FFF7DEFA1023254A0421302077
:10284000FFF754FA052206210020FFF7E3F90622DC
:1028500011461020FFF7DEF910233A22062120202E
:10286000FFF700FA082321A206213020FFF73EFAE5
:10287000082321A207213820FFF738FA204EDFF87D
:102880008480DFF884904FF400554FF4FA7729469E
:102890003046FEF79DF83846FDF78AFFD4E900017F
:1028A00042464B46FDF71BFDD4E90223FDF770FCC1
:1028B000C4E9020102460B4614A10548FFF79AFA43
:1028C000E5E700007002002000000C40000000203E
:1028D000E8010020252E33666D2F7300252E336608
:1028E0006D5E3300252E30666D5E330032342D313F
:1028F000322D31320000000032333A353900000009
:10290000001001409A9999999999A93F252E32660C
:102910006D5E3300010202030405060708090A0B75
:102920000C0D0E0F1010000000000000000001024E
:102930000304060708090000000001020304000068
:10294000000000000000002F00000000070007004A
:1029500000147F147F1400242A7F2A120062640866
:1029600013230036495522500000050300000000E3
:102970001C224100000041221C000014083E0814E3
:102980000008083E0808000000A0600000080808D1
:102990000808000060600000002010080402003EEB
:1029A0005149453E0000427F400000426151494686
:1029B000002141454B31001814127F100027454576
:1029C0004539003C4A494930000171090503003688
:1029D0004949493600064949291E0000363600009B
:1029E00000005636000000081422410000141414A0
:1029F000141400004122140800020151090600329B
:102A00004959513E007C1211127C007F49494936D8
:102A1000003E41414122007F4141221C007F494943
:102A20004941007F09090901003E4149497A007F77
:102A30000808087F0000417F4100002040413F011D
:102A4000007F08142241007F40404040007F020C7C
:102A5000027F007F0408107F003E4141413E007F1D
:102A600009090906003E4151215E007F09192946E6
:102A70000046494949310001017F0101003F4040C2
:102A8000403F001F2040201F003F4038403F006370
:102A90001408146300070870080700615149454392
:102AA00000007F41410000552A552A550000414150
:102AB0007F0000040201020400404040404000004A
:102AC00001020400002054545478007F48444438E4
:102AD00000384444442000384444487F003854546B
:102AE000541800087E0901020018A4A4A47C007FE9
:102AF000080404780000447D4000004080847D008C
:102B0000007F102844000000417F4000007C041832
:102B10000478007C0804047800384444443800FCFD
:102B2000242424180018242418FC007C0804040819
:102B300000485454542000043F444020003C40408E
:102B4000207C001C2040201C003C4030403C0044C5
:102B500028102844001CA0A0A07C004464544C44CD
:102B600014141414141400000000000000000000ED
:102B7000000000000000000000F80000000000005D
:102B800000333000000000100C06100C060000009E
:102B900000000000000040C07840C0784000043FC2
:102BA00004043F040400007088FC08300000001892
:102BB00020FF211E0000F008F000E01800000021B6
:102BC0001C031E211E0000F00888700000001E215A
:102BD00023241927211010160E0000000000000009
:102BE000000000000000000000E0180402000000E7
:102BF00000071820400000020418E0000000004018
:102C0000201807000000404080F080404000020291
:102C1000010F01020200000000F0000000000101AD
:102C2000011F01010100000000000000000080B051
:102C30007000000000000000000000000000000123
:102C4000010101010101000000000000000000304E
:102C500030000000000000000000806018040060E8
:102C600018060100000000E010080810E000000F46
:102C7000102020100F00001010F8000000000020AD
:102C8000203F2020000000700808088870000030F5
:102C9000282422213000003008888848300000189D
:102CA000202020110E000000C02010F800000007B6
:102CB0000424243F240000F808888808080000192C
:102CC000212020110E0000E0108888180000000F5D
:102CD000112020110E0000380808C8380800000034
:102CE000003F000000000070880808887000001C89
:102CF000222121221C0000E010080810E000000042
:102D0000312222110F00000000C0C00000000000AE
:102D100000303000000000000080000000000000D3
:102D200080600000000000008040201008000001CA
:102D3000020408102000404040404040400004048D
:102D40000404040404000008102040800000002057
:102D5000100804020100007048080808F000000094
:102D6000003036010000C030C828E810E000071825
:102D7000272423140B000000C038E0000000203C92
:102D800023020227382008F8888888700000203F36
:102D9000202020110E00C03008080808380007184D
:102DA00020202010080008F808080810E000203F44
:102DB000202020100F0008F88888E8081000203F25
:102DC00020202320180008F88888E8081000203FF9
:102DD000200003000000C030080808380000071871
:102DE0002020221E020008F808000008F808203FF2
:102DF000210101213F20000808F8080800000020F8
:102E0000203F2020000000000808F8080800C080CB
:102E100080807F00000008F888C028180800203F44
:102E200020012638200008F8080000000000203F9C
:102E300020202020300008F8F800F8F80800203F93
:102E4000003F003F200008F830C00008F808203F8D
:102E5000200007183F00E01008080810E0000F10DD
:102E6000202020100F0008F808080808F000203F74
:102E7000210101010000E01008080810E0000F180F
:102E8000242438504F0008F8888888887000203F34
:102E90002000030C30200070880808083800003833
:102EA000202121221C00180808F80808180000003A
:102EB000203F2000000008F808000008F808001F64
:102EC000202020201F000878880000C83808000053
:102ED00007380E010000F80800F80008F800033C6D
:102EE0000700073C03000818688080681808203035
:102EF0002C03032C30200838C800C8380800000014
:102F0000203F2000000010080808C83808002038BA
:102F1000262120201800000000FE0202020000000E
:102F2000007F40404000000C30C000000000000066
:102F300000010638C00000020202FE00000000404E
:102F400040407F0000000000040202020400000074
:102F50000000000000000000000000000000808071
:102F60008080808080800002020400000000000059
:102F70000000000000000000808080800000001938
:102F8000242222223F2008F8008080000000003F19
:102F9000112020110E000000008080800000000E33
:102FA000112020201100000000808088F800000E11
:102FB000112020103F200000808080800000001F32
:102FC000222222221300008080F0888888180020A6
:102FD000203F202000000000808080808000006B67
:102FE00094949493600008F8008080800000203F53
:102FF000210000203F200080989800000000002061
:10300000203F20200000000000809898000000C0B1
:103010008080807F000008F8000080808000203FD2
:1030200024022D302000000808F8000000000020D5
:10303000203F202000008080808080808000203F12
:1030400020003F20003F8080008080800000203FE3
:10305000210000203F200000808080800000001FB1
:10306000202020201F00808000808000000080FF42
:10307000A12020110E000000008080808000000E42
:10308000112020A0FF808080800080808000202090
:103090003F212000010000008080808080000033FC
:1030A000242424241900008080E080800000000097
:1030B000001F202000008080000000808000001F92
:1030C000202020103F208080800000808080000130
:1030D0000E300806010080800080008080800F3064
:1030E0000C030C300F0000808000808080000020E6
:1030F000312E0E3120008080800000808080808111
:103100008E70180601000080808080808000002181
:10311000302C2221300000000000807C02020000E0
:103120000000003F404000000000FF0000000000E1
:103130000000FF0000000002027C80000000004050
:10314000403F0000000000060101020204040000EC
:10315000000000000000000078310008000000209E
:10316000E8010000B006000844320008E801002031
:10317000300500004C1E0008011634544001821036
:103180001324F4000F121022640C80444464554E42
:10319000445466C4150404FE011480403F12FF0528
:1031A000113F40407015404244CC1EF4949494FF6B
:1031B000040312F604000F1140201F20514844421E
:1031C0007F42444C61204E202020BEAA010C10BF3B
:1031D000223020111C8080AF1C1AFF040419AF801C
:1031E000801AFF4809123E114A40013A7F06031235
:1031F000604016FE0222DA061BFE92010B12FF024D
:103200005A15081008070F11FF4224081422C01194
:10321000000F12FC848484FE141090101010FF1014
:10322000101A3F19323F05142340807F1FF8010216
:10323000F61012010C12FA1202811AFF432A110130
:043240000A133F41ED
:04000005080000ED02
:00000001FF
